{
    "_format": "hh-sol-artifact-1",
    "contractName": "BananaAccount",
    "sourceName": "contracts/BananaAccount.sol",
    "abi": [
        {
            "inputs": [
                {
                    "internalType": "address",
                    "name": "_gateway",
                    "type": "address"
                },
                {
                    "internalType": "address",
                    "name": "_gasReceiver",
                    "type": "address"
                }
            ],
            "stateMutability": "nonpayable",
            "type": "constructor"
        },
        {
            "inputs": [],
            "name": "InvalidAddress",
            "type": "error"
        },
        {
            "inputs": [],
            "name": "NotApprovedByGateway",
            "type": "error"
        },
        {
            "anonymous": false,
            "inputs": [
                {
                    "indexed": false,
                    "internalType": "address",
                    "name": "owner",
                    "type": "address"
                }
            ],
            "name": "AddedOwner",
            "type": "event"
        },
        {
            "anonymous": false,
            "inputs": [
                {
                    "indexed": true,
                    "internalType": "bytes32",
                    "name": "approvedHash",
                    "type": "bytes32"
                },
                {
                    "indexed": true,
                    "internalType": "address",
                    "name": "owner",
                    "type": "address"
                }
            ],
            "name": "ApproveHash",
            "type": "event"
        },
        {
            "anonymous": false,
            "inputs": [
                {
                    "indexed": false,
                    "internalType": "address",
                    "name": "handler",
                    "type": "address"
                }
            ],
            "name": "ChangedFallbackHandler",
            "type": "event"
        },
        {
            "anonymous": false,
            "inputs": [
                {
                    "indexed": false,
                    "internalType": "address",
                    "name": "guard",
                    "type": "address"
                }
            ],
            "name": "ChangedGuard",
            "type": "event"
        },
        {
            "anonymous": false,
            "inputs": [
                {
                    "indexed": false,
                    "internalType": "uint256",
                    "name": "threshold",
                    "type": "uint256"
                }
            ],
            "name": "ChangedThreshold",
            "type": "event"
        },
        {
            "anonymous": false,
            "inputs": [
                {
                    "indexed": false,
                    "internalType": "address",
                    "name": "module",
                    "type": "address"
                }
            ],
            "name": "DisabledModule",
            "type": "event"
        },
        {
            "anonymous": false,
            "inputs": [
                {
                    "indexed": false,
                    "internalType": "address",
                    "name": "module",
                    "type": "address"
                }
            ],
            "name": "EnabledModule",
            "type": "event"
        },
        {
            "anonymous": false,
            "inputs": [
                {
                    "indexed": false,
                    "internalType": "bytes32",
                    "name": "txHash",
                    "type": "bytes32"
                },
                {
                    "indexed": false,
                    "internalType": "uint256",
                    "name": "payment",
                    "type": "uint256"
                }
            ],
            "name": "ExecutionFailure",
            "type": "event"
        },
        {
            "anonymous": false,
            "inputs": [
                {
                    "indexed": true,
                    "internalType": "address",
                    "name": "module",
                    "type": "address"
                }
            ],
            "name": "ExecutionFromModuleFailure",
            "type": "event"
        },
        {
            "anonymous": false,
            "inputs": [
                {
                    "indexed": true,
                    "internalType": "address",
                    "name": "module",
                    "type": "address"
                }
            ],
            "name": "ExecutionFromModuleSuccess",
            "type": "event"
        },
        {
            "anonymous": false,
            "inputs": [
                {
                    "indexed": false,
                    "internalType": "bytes32",
                    "name": "txHash",
                    "type": "bytes32"
                },
                {
                    "indexed": false,
                    "internalType": "uint256",
                    "name": "payment",
                    "type": "uint256"
                }
            ],
            "name": "ExecutionSuccess",
            "type": "event"
        },
        {
            "anonymous": false,
            "inputs": [
                {
                    "indexed": false,
                    "internalType": "address",
                    "name": "owner",
                    "type": "address"
                }
            ],
            "name": "RemovedOwner",
            "type": "event"
        },
        {
            "anonymous": false,
            "inputs": [
                {
                    "indexed": true,
                    "internalType": "address",
                    "name": "sender",
                    "type": "address"
                },
                {
                    "indexed": false,
                    "internalType": "uint256",
                    "name": "value",
                    "type": "uint256"
                }
            ],
            "name": "SafeReceived",
            "type": "event"
        },
        {
            "anonymous": false,
            "inputs": [
                {
                    "indexed": true,
                    "internalType": "address",
                    "name": "initiator",
                    "type": "address"
                },
                {
                    "indexed": false,
                    "internalType": "address[]",
                    "name": "owners",
                    "type": "address[]"
                },
                {
                    "indexed": false,
                    "internalType": "uint256",
                    "name": "threshold",
                    "type": "uint256"
                },
                {
                    "indexed": false,
                    "internalType": "address",
                    "name": "initializer",
                    "type": "address"
                },
                {
                    "indexed": false,
                    "internalType": "address",
                    "name": "fallbackHandler",
                    "type": "address"
                }
            ],
            "name": "SafeSetup",
            "type": "event"
        },
        {
            "anonymous": false,
            "inputs": [
                {
                    "indexed": true,
                    "internalType": "bytes32",
                    "name": "msgHash",
                    "type": "bytes32"
                }
            ],
            "name": "SignMsg",
            "type": "event"
        },
        {
            "anonymous": false,
            "inputs": [
                {
                    "indexed": false,
                    "internalType": "string",
                    "name": "tokenSymbol",
                    "type": "string"
                },
                {
                    "indexed": false,
                    "internalType": "string",
                    "name": "sourceAddress",
                    "type": "string"
                },
                {
                    "indexed": false,
                    "internalType": "uint256",
                    "name": "amount",
                    "type": "uint256"
                },
                {
                    "indexed": false,
                    "internalType": "string",
                    "name": "sourceChain",
                    "type": "string"
                }
            ],
            "name": "TokenReceivedEvent",
            "type": "event"
        },
        {
            "stateMutability": "nonpayable",
            "type": "fallback"
        },
        {
            "inputs": [],
            "name": "VERSION",
            "outputs": [
                {
                    "internalType": "string",
                    "name": "",
                    "type": "string"
                }
            ],
            "stateMutability": "view",
            "type": "function"
        },
        {
            "inputs": [
                {
                    "internalType": "address",
                    "name": "owner",
                    "type": "address"
                },
                {
                    "internalType": "uint256",
                    "name": "_threshold",
                    "type": "uint256"
                }
            ],
            "name": "addOwnerWithThreshold",
            "outputs": [],
            "stateMutability": "nonpayable",
            "type": "function"
        },
        {
            "inputs": [
                {
                    "internalType": "bytes32",
                    "name": "hashToApprove",
                    "type": "bytes32"
                }
            ],
            "name": "approveHash",
            "outputs": [],
            "stateMutability": "nonpayable",
            "type": "function"
        },
        {
            "inputs": [
                {
                    "internalType": "address",
                    "name": "",
                    "type": "address"
                },
                {
                    "internalType": "bytes32",
                    "name": "",
                    "type": "bytes32"
                }
            ],
            "name": "approvedHashes",
            "outputs": [
                {
                    "internalType": "uint256",
                    "name": "",
                    "type": "uint256"
                }
            ],
            "stateMutability": "view",
            "type": "function"
        },
        {
            "inputs": [
                {
                    "internalType": "uint256",
                    "name": "_threshold",
                    "type": "uint256"
                }
            ],
            "name": "changeThreshold",
            "outputs": [],
            "stateMutability": "nonpayable",
            "type": "function"
        },
        {
            "inputs": [
                {
                    "internalType": "bytes32",
                    "name": "dataHash",
                    "type": "bytes32"
                },
                {
                    "internalType": "bytes",
                    "name": "data",
                    "type": "bytes"
                },
                {
                    "internalType": "bytes",
                    "name": "signatures",
                    "type": "bytes"
                },
                {
                    "internalType": "uint256",
                    "name": "requiredSignatures",
                    "type": "uint256"
                }
            ],
            "name": "checkNSignatures",
            "outputs": [],
            "stateMutability": "view",
            "type": "function"
        },
        {
            "inputs": [
                {
                    "internalType": "bytes32",
                    "name": "dataHash",
                    "type": "bytes32"
                },
                {
                    "internalType": "bytes",
                    "name": "data",
                    "type": "bytes"
                },
                {
                    "internalType": "bytes",
                    "name": "signatures",
                    "type": "bytes"
                }
            ],
            "name": "checkSignatures",
            "outputs": [],
            "stateMutability": "view",
            "type": "function"
        },
        {
            "inputs": [
                {
                    "internalType": "string",
                    "name": "symbol",
                    "type": "string"
                },
                {
                    "internalType": "string",
                    "name": "destinationChain",
                    "type": "string"
                },
                {
                    "internalType": "string",
                    "name": "contractAddress",
                    "type": "string"
                },
                {
                    "internalType": "uint256",
                    "name": "amount",
                    "type": "uint256"
                },
                {
                    "internalType": "bytes",
                    "name": "payload",
                    "type": "bytes"
                }
            ],
            "name": "crossChainTransact",
            "outputs": [],
            "stateMutability": "payable",
            "type": "function"
        },
        {
            "inputs": [
                {
                    "internalType": "address",
                    "name": "prevModule",
                    "type": "address"
                },
                {
                    "internalType": "address",
                    "name": "module",
                    "type": "address"
                }
            ],
            "name": "disableModule",
            "outputs": [],
            "stateMutability": "nonpayable",
            "type": "function"
        },
        {
            "inputs": [],
            "name": "domainSeparator",
            "outputs": [
                {
                    "internalType": "bytes32",
                    "name": "",
                    "type": "bytes32"
                }
            ],
            "stateMutability": "view",
            "type": "function"
        },
        {
            "inputs": [
                {
                    "internalType": "address",
                    "name": "module",
                    "type": "address"
                }
            ],
            "name": "enableModule",
            "outputs": [],
            "stateMutability": "nonpayable",
            "type": "function"
        },
        {
            "inputs": [
                {
                    "internalType": "address",
                    "name": "to",
                    "type": "address"
                },
                {
                    "internalType": "uint256",
                    "name": "value",
                    "type": "uint256"
                },
                {
                    "internalType": "bytes",
                    "name": "data",
                    "type": "bytes"
                },
                {
                    "internalType": "enum Enum.Operation",
                    "name": "operation",
                    "type": "uint8"
                },
                {
                    "internalType": "uint256",
                    "name": "safeTxGas",
                    "type": "uint256"
                },
                {
                    "internalType": "uint256",
                    "name": "baseGas",
                    "type": "uint256"
                },
                {
                    "internalType": "uint256",
                    "name": "gasPrice",
                    "type": "uint256"
                },
                {
                    "internalType": "address",
                    "name": "gasToken",
                    "type": "address"
                },
                {
                    "internalType": "address",
                    "name": "refundReceiver",
                    "type": "address"
                },
                {
                    "internalType": "uint256",
                    "name": "_nonce",
                    "type": "uint256"
                }
            ],
            "name": "encodeTransactionData",
            "outputs": [
                {
                    "internalType": "bytes",
                    "name": "",
                    "type": "bytes"
                }
            ],
            "stateMutability": "view",
            "type": "function"
        },
        {
            "inputs": [
                {
                    "internalType": "bytes32",
                    "name": "",
                    "type": "bytes32"
                },
                {
                    "internalType": "uint256",
                    "name": "",
                    "type": "uint256"
                }
            ],
            "name": "encodedIdHashToQValues",
            "outputs": [
                {
                    "internalType": "uint256",
                    "name": "",
                    "type": "uint256"
                }
            ],
            "stateMutability": "view",
            "type": "function"
        },
        {
            "inputs": [],
            "name": "entryPoint",
            "outputs": [
                {
                    "internalType": "address",
                    "name": "",
                    "type": "address"
                }
            ],
            "stateMutability": "view",
            "type": "function"
        },
        {
            "inputs": [
                {
                    "internalType": "address[]",
                    "name": "to",
                    "type": "address[]"
                },
                {
                    "internalType": "uint256[]",
                    "name": "value",
                    "type": "uint256[]"
                },
                {
                    "internalType": "bytes[]",
                    "name": "data",
                    "type": "bytes[]"
                },
                {
                    "internalType": "enum Enum.Operation",
                    "name": "operation",
                    "type": "uint8"
                }
            ],
            "name": "execBatchTransactionFromEntrypoint",
            "outputs": [],
            "stateMutability": "nonpayable",
            "type": "function"
        },
        {
            "inputs": [
                {
                    "internalType": "address",
                    "name": "to",
                    "type": "address"
                },
                {
                    "internalType": "uint256",
                    "name": "value",
                    "type": "uint256"
                },
                {
                    "internalType": "bytes",
                    "name": "data",
                    "type": "bytes"
                },
                {
                    "internalType": "enum Enum.Operation",
                    "name": "operation",
                    "type": "uint8"
                },
                {
                    "internalType": "uint256",
                    "name": "safeTxGas",
                    "type": "uint256"
                },
                {
                    "internalType": "uint256",
                    "name": "baseGas",
                    "type": "uint256"
                },
                {
                    "internalType": "uint256",
                    "name": "gasPrice",
                    "type": "uint256"
                },
                {
                    "internalType": "address",
                    "name": "gasToken",
                    "type": "address"
                },
                {
                    "internalType": "address payable",
                    "name": "refundReceiver",
                    "type": "address"
                },
                {
                    "internalType": "bytes",
                    "name": "signatures",
                    "type": "bytes"
                }
            ],
            "name": "execTransaction",
            "outputs": [
                {
                    "internalType": "bool",
                    "name": "success",
                    "type": "bool"
                }
            ],
            "stateMutability": "payable",
            "type": "function"
        },
        {
            "inputs": [
                {
                    "internalType": "address",
                    "name": "to",
                    "type": "address"
                },
                {
                    "internalType": "uint256",
                    "name": "value",
                    "type": "uint256"
                },
                {
                    "internalType": "bytes",
                    "name": "data",
                    "type": "bytes"
                },
                {
                    "internalType": "enum Enum.Operation",
                    "name": "operation",
                    "type": "uint8"
                }
            ],
            "name": "execTransactionFromEntrypoint",
            "outputs": [],
            "stateMutability": "nonpayable",
            "type": "function"
        },
        {
            "inputs": [
                {
                    "internalType": "address",
                    "name": "to",
                    "type": "address"
                },
                {
                    "internalType": "uint256",
                    "name": "value",
                    "type": "uint256"
                },
                {
                    "internalType": "bytes",
                    "name": "data",
                    "type": "bytes"
                },
                {
                    "internalType": "enum Enum.Operation",
                    "name": "operation",
                    "type": "uint8"
                }
            ],
            "name": "execTransactionFromModule",
            "outputs": [
                {
                    "internalType": "bool",
                    "name": "success",
                    "type": "bool"
                }
            ],
            "stateMutability": "nonpayable",
            "type": "function"
        },
        {
            "inputs": [
                {
                    "internalType": "address",
                    "name": "to",
                    "type": "address"
                },
                {
                    "internalType": "uint256",
                    "name": "value",
                    "type": "uint256"
                },
                {
                    "internalType": "bytes",
                    "name": "data",
                    "type": "bytes"
                },
                {
                    "internalType": "enum Enum.Operation",
                    "name": "operation",
                    "type": "uint8"
                }
            ],
            "name": "execTransactionFromModuleReturnData",
            "outputs": [
                {
                    "internalType": "bool",
                    "name": "success",
                    "type": "bool"
                },
                {
                    "internalType": "bytes",
                    "name": "returnData",
                    "type": "bytes"
                }
            ],
            "stateMutability": "nonpayable",
            "type": "function"
        },
        {
            "inputs": [
                {
                    "internalType": "bytes32",
                    "name": "commandId",
                    "type": "bytes32"
                },
                {
                    "internalType": "string",
                    "name": "sourceChain",
                    "type": "string"
                },
                {
                    "internalType": "string",
                    "name": "sourceAddress",
                    "type": "string"
                },
                {
                    "internalType": "bytes",
                    "name": "payload",
                    "type": "bytes"
                }
            ],
            "name": "execute",
            "outputs": [],
            "stateMutability": "nonpayable",
            "type": "function"
        },
        {
            "inputs": [
                {
                    "internalType": "bytes32",
                    "name": "commandId",
                    "type": "bytes32"
                },
                {
                    "internalType": "string",
                    "name": "sourceChain",
                    "type": "string"
                },
                {
                    "internalType": "string",
                    "name": "sourceAddress",
                    "type": "string"
                },
                {
                    "internalType": "bytes",
                    "name": "payload",
                    "type": "bytes"
                },
                {
                    "internalType": "string",
                    "name": "tokenSymbol",
                    "type": "string"
                },
                {
                    "internalType": "uint256",
                    "name": "amount",
                    "type": "uint256"
                }
            ],
            "name": "executeWithToken",
            "outputs": [],
            "stateMutability": "nonpayable",
            "type": "function"
        },
        {
            "inputs": [],
            "name": "gateway",
            "outputs": [
                {
                    "internalType": "contract IAxelarGateway",
                    "name": "",
                    "type": "address"
                }
            ],
            "stateMutability": "view",
            "type": "function"
        },
        {
            "inputs": [],
            "name": "getChainId",
            "outputs": [
                {
                    "internalType": "uint256",
                    "name": "",
                    "type": "uint256"
                }
            ],
            "stateMutability": "view",
            "type": "function"
        },
        {
            "inputs": [
                {
                    "internalType": "address",
                    "name": "start",
                    "type": "address"
                },
                {
                    "internalType": "uint256",
                    "name": "pageSize",
                    "type": "uint256"
                }
            ],
            "name": "getModulesPaginated",
            "outputs": [
                {
                    "internalType": "address[]",
                    "name": "array",
                    "type": "address[]"
                },
                {
                    "internalType": "address",
                    "name": "next",
                    "type": "address"
                }
            ],
            "stateMutability": "view",
            "type": "function"
        },
        {
            "inputs": [],
            "name": "getOwners",
            "outputs": [
                {
                    "internalType": "address[]",
                    "name": "",
                    "type": "address[]"
                }
            ],
            "stateMutability": "view",
            "type": "function"
        },
        {
            "inputs": [
                {
                    "internalType": "uint256",
                    "name": "offset",
                    "type": "uint256"
                },
                {
                    "internalType": "uint256",
                    "name": "length",
                    "type": "uint256"
                }
            ],
            "name": "getStorageAt",
            "outputs": [
                {
                    "internalType": "bytes",
                    "name": "",
                    "type": "bytes"
                }
            ],
            "stateMutability": "view",
            "type": "function"
        },
        {
            "inputs": [],
            "name": "getThreshold",
            "outputs": [
                {
                    "internalType": "uint256",
                    "name": "",
                    "type": "uint256"
                }
            ],
            "stateMutability": "view",
            "type": "function"
        },
        {
            "inputs": [
                {
                    "internalType": "address",
                    "name": "to",
                    "type": "address"
                },
                {
                    "internalType": "uint256",
                    "name": "value",
                    "type": "uint256"
                },
                {
                    "internalType": "bytes",
                    "name": "data",
                    "type": "bytes"
                },
                {
                    "internalType": "enum Enum.Operation",
                    "name": "operation",
                    "type": "uint8"
                },
                {
                    "internalType": "uint256",
                    "name": "safeTxGas",
                    "type": "uint256"
                },
                {
                    "internalType": "uint256",
                    "name": "baseGas",
                    "type": "uint256"
                },
                {
                    "internalType": "uint256",
                    "name": "gasPrice",
                    "type": "uint256"
                },
                {
                    "internalType": "address",
                    "name": "gasToken",
                    "type": "address"
                },
                {
                    "internalType": "address",
                    "name": "refundReceiver",
                    "type": "address"
                },
                {
                    "internalType": "uint256",
                    "name": "_nonce",
                    "type": "uint256"
                }
            ],
            "name": "getTransactionHash",
            "outputs": [
                {
                    "internalType": "bytes32",
                    "name": "",
                    "type": "bytes32"
                }
            ],
            "stateMutability": "view",
            "type": "function"
        },
        {
            "inputs": [
                {
                    "internalType": "address",
                    "name": "module",
                    "type": "address"
                }
            ],
            "name": "isModuleEnabled",
            "outputs": [
                {
                    "internalType": "bool",
                    "name": "",
                    "type": "bool"
                }
            ],
            "stateMutability": "view",
            "type": "function"
        },
        {
            "inputs": [
                {
                    "internalType": "address",
                    "name": "owner",
                    "type": "address"
                }
            ],
            "name": "isOwner",
            "outputs": [
                {
                    "internalType": "bool",
                    "name": "",
                    "type": "bool"
                }
            ],
            "stateMutability": "view",
            "type": "function"
        },
        {
            "inputs": [],
            "name": "nonce",
            "outputs": [
                {
                    "internalType": "uint256",
                    "name": "",
                    "type": "uint256"
                }
            ],
            "stateMutability": "view",
            "type": "function"
        },
        {
            "inputs": [
                {
                    "internalType": "address",
                    "name": "prevOwner",
                    "type": "address"
                },
                {
                    "internalType": "address",
                    "name": "owner",
                    "type": "address"
                },
                {
                    "internalType": "uint256",
                    "name": "_threshold",
                    "type": "uint256"
                }
            ],
            "name": "removeOwner",
            "outputs": [],
            "stateMutability": "nonpayable",
            "type": "function"
        },
        {
            "inputs": [
                {
                    "internalType": "address",
                    "name": "handler",
                    "type": "address"
                }
            ],
            "name": "setFallbackHandler",
            "outputs": [],
            "stateMutability": "nonpayable",
            "type": "function"
        },
        {
            "inputs": [
                {
                    "internalType": "address",
                    "name": "guard",
                    "type": "address"
                }
            ],
            "name": "setGuard",
            "outputs": [],
            "stateMutability": "nonpayable",
            "type": "function"
        },
        {
            "inputs": [
                {
                    "internalType": "address[]",
                    "name": "_owners",
                    "type": "address[]"
                },
                {
                    "internalType": "uint256",
                    "name": "_threshold",
                    "type": "uint256"
                },
                {
                    "internalType": "address",
                    "name": "to",
                    "type": "address"
                },
                {
                    "internalType": "bytes",
                    "name": "data",
                    "type": "bytes"
                },
                {
                    "internalType": "address",
                    "name": "fallbackHandler",
                    "type": "address"
                },
                {
                    "internalType": "address",
                    "name": "paymentToken",
                    "type": "address"
                },
                {
                    "internalType": "uint256",
                    "name": "payment",
                    "type": "uint256"
                },
                {
                    "internalType": "address payable",
                    "name": "paymentReceiver",
                    "type": "address"
                }
            ],
            "name": "setup",
            "outputs": [],
            "stateMutability": "nonpayable",
            "type": "function"
        },
        {
            "inputs": [
                {
                    "internalType": "address[]",
                    "name": "_owners",
                    "type": "address[]"
                },
                {
                    "internalType": "uint256",
                    "name": "_threshold",
                    "type": "uint256"
                },
                {
                    "internalType": "address",
                    "name": "to",
                    "type": "address"
                },
                {
                    "internalType": "bytes",
                    "name": "data",
                    "type": "bytes"
                },
                {
                    "internalType": "address",
                    "name": "fallbackHandler",
                    "type": "address"
                },
                {
                    "internalType": "address",
                    "name": "paymentToken",
                    "type": "address"
                },
                {
                    "internalType": "uint256",
                    "name": "payment",
                    "type": "uint256"
                },
                {
                    "internalType": "address payable",
                    "name": "paymentReceiver",
                    "type": "address"
                },
                {
                    "internalType": "address",
                    "name": "_entryPoint",
                    "type": "address"
                },
                {
                    "internalType": "bytes32",
                    "name": "_encodedIdHash",
                    "type": "bytes32"
                },
                {
                    "internalType": "uint256[2]",
                    "name": "_qValues",
                    "type": "uint256[2]"
                }
            ],
            "name": "setupWithEntrypoint",
            "outputs": [],
            "stateMutability": "nonpayable",
            "type": "function"
        },
        {
            "inputs": [
                {
                    "internalType": "bytes32",
                    "name": "",
                    "type": "bytes32"
                }
            ],
            "name": "signedMessages",
            "outputs": [
                {
                    "internalType": "uint256",
                    "name": "",
                    "type": "uint256"
                }
            ],
            "stateMutability": "view",
            "type": "function"
        },
        {
            "inputs": [
                {
                    "internalType": "address",
                    "name": "targetContract",
                    "type": "address"
                },
                {
                    "internalType": "bytes",
                    "name": "calldataPayload",
                    "type": "bytes"
                }
            ],
            "name": "simulateAndRevert",
            "outputs": [],
            "stateMutability": "nonpayable",
            "type": "function"
        },
        {
            "inputs": [
                {
                    "internalType": "address",
                    "name": "prevOwner",
                    "type": "address"
                },
                {
                    "internalType": "address",
                    "name": "oldOwner",
                    "type": "address"
                },
                {
                    "internalType": "address",
                    "name": "newOwner",
                    "type": "address"
                }
            ],
            "name": "swapOwner",
            "outputs": [],
            "stateMutability": "nonpayable",
            "type": "function"
        },
        {
            "inputs": [
                {
                    "components": [
                        {
                            "internalType": "address",
                            "name": "sender",
                            "type": "address"
                        },
                        {
                            "internalType": "uint256",
                            "name": "nonce",
                            "type": "uint256"
                        },
                        {
                            "internalType": "bytes",
                            "name": "initCode",
                            "type": "bytes"
                        },
                        {
                            "internalType": "bytes",
                            "name": "callData",
                            "type": "bytes"
                        },
                        {
                            "internalType": "uint256",
                            "name": "callGasLimit",
                            "type": "uint256"
                        },
                        {
                            "internalType": "uint256",
                            "name": "verificationGasLimit",
                            "type": "uint256"
                        },
                        {
                            "internalType": "uint256",
                            "name": "preVerificationGas",
                            "type": "uint256"
                        },
                        {
                            "internalType": "uint256",
                            "name": "maxFeePerGas",
                            "type": "uint256"
                        },
                        {
                            "internalType": "uint256",
                            "name": "maxPriorityFeePerGas",
                            "type": "uint256"
                        },
                        {
                            "internalType": "bytes",
                            "name": "paymasterAndData",
                            "type": "bytes"
                        },
                        {
                            "internalType": "bytes",
                            "name": "signature",
                            "type": "bytes"
                        }
                    ],
                    "internalType": "struct UserOperation",
                    "name": "userOp",
                    "type": "tuple"
                },
                {
                    "internalType": "bytes32",
                    "name": "userOpHash",
                    "type": "bytes32"
                },
                {
                    "internalType": "uint256",
                    "name": "missingAccountFunds",
                    "type": "uint256"
                }
            ],
            "name": "validateUserOp",
            "outputs": [
                {
                    "internalType": "uint256",
                    "name": "validationData",
                    "type": "uint256"
                }
            ],
            "stateMutability": "nonpayable",
            "type": "function"
        },
        {
            "inputs": [
                {
                    "internalType": "bytes32",
                    "name": "messageToBeSigned",
                    "type": "bytes32"
                },
                {
                    "internalType": "uint256[2]",
                    "name": "signature",
                    "type": "uint256[2]"
                },
                {
                    "internalType": "uint256[2]",
                    "name": "publicKey",
                    "type": "uint256[2]"
                }
            ],
            "name": "verifySignature",
            "outputs": [
                {
                    "internalType": "bool",
                    "name": "",
                    "type": "bool"
                }
            ],
            "stateMutability": "view",
            "type": "function"
        },
        {
            "stateMutability": "payable",
            "type": "receive"
        }
    ],
    "bytecode": "0x60c034620000c157601f6200657b38819003918201601f19168301916001600160401b03831184841017620000c6578084926040948552833981010312620000c1576200005a60206200005283620000dc565b9201620000dc565b60016004556001600160a01b039182168015620000af576080521660a0526040516164899081620000f28239608051818181610a51015281816110f30152818161299a01526132ea015260a051816133d20152f35b60405163e6c4247b60e01b8152600490fd5b600080fd5b634e487b7160e01b600052604160045260246000fd5b51906001600160a01b0382168203620000c15756fe60806040526004361015610030575b3615610028573461002357610021614a9c565b005b600080fd5b610021615455565b60003560e01c8063041a3720146103645780630a7d93d81461035b5780630d582f1314610352578063116191b61461034957806312fb68e0146103405780631a98b2e0146103375780632694bd1d1461032e5780632d9ad53d146103255780632f54bf6e1461031c5780633408e470146103135780633a871cdd1461030a578063468721a71461030157806349160658146102f85780635229073f146102ef5780635624b25b146102e65780635ae6bd37146102dd578063610b5925146102d4578063694e80c3146102cb5780636a761202146102c25780637045908c146102b95780637d832974146102b05780638ab7495b146102a7578063934f3a111461029e578063a0e67e2b14610295578063affed0e01461028c578063b0d691fe14610283578063b4faba091461027a578063b63e800d14610271578063cc2f845214610268578063d4d9bdcd1461025f578063d8d11f7814610256578063d93695ab1461024d578063e009cfde14610244578063e19a9dd91461023b578063e318b52b14610232578063e75235b814610229578063e86637db14610220578063f08a032314610217578063f698da251461020e578063f8dc5dd9146102055763ffa1ad740361000e576102006127e7565b61000e565b50610200612699565b50610200612657565b506102006125ae565b50610200612585565b50610200612548565b50610200612309565b50610200612195565b50610200611fc4565b50610200611f6a565b50610200611f06565b50610200611d3e565b50610200611b7e565b50610200611aa1565b50610200611a22565b506102006119cf565b50610200611992565b506102006118d3565b50610200611814565b50610200611715565b50610200611676565b506102006115f5565b50610200611534565b506102006114ae565b50610200611360565b50610200611315565b50610200611261565b50610200611208565b50610200610fe3565b50610200610fc6565b50610200610e56565b50610200610e1c565b50610200610d93565b50610200610d43565b50610200610c15565b50610200610aed565b50610200610a75565b50610200610a05565b506102006107b6565b50610200610714565b506102006105ba565b9181601f840112156100235782359167ffffffffffffffff8311610023576020808501948460051b01011161002357565b73ffffffffffffffffffffffffffffffffffffffff81160361002357565b608435906103c98261039e565b565b60a435906103c98261039e565b61010435906103c98261039e565b60e435906103c98261039e565b9181601f840112156100235782359167ffffffffffffffff8311610023576020838186019501011161002357565b507f4e487b7100000000000000000000000000000000000000000000000000000000600052604160045260246000fd5b67ffffffffffffffff811161046557604052565b61046d610421565b604052565b6060810190811067ffffffffffffffff82111761046557604052565b6040810190811067ffffffffffffffff82111761046557604052565b6080810190811067ffffffffffffffff82111761046557604052565b610180810190811067ffffffffffffffff82111761046557604052565b90601f7fffffffffffffffffffffffffffffffffffffffffffffffffffffffffffffffe0910116810190811067ffffffffffffffff82111761046557604052565b604051906103c982610472565b604051906103c98261048e565b906040519161054c8361048e565b8260a4918211610023576064905b82821061056657505050565b813581526020918201910161055a565b806101631215610023576040519061058d8261048e565b8161018491821161002357610144905b8282106105aa5750505090565b813581526020918201910161059d565b5034610023576101807ffffffffffffffffffffffffffffffffffffffffffffffffffffffffffffffffc3601126100235767ffffffffffffffff6004358181116100235761060c90369060040161036d565b906044359161061a8361039e565b606435938411610023576106356100219436906004016103f3565b909161063f6103bc565b6106476103cb565b906106506103e6565b936106596103d8565b9561066336610576565b98610124359860c4359660243591612be9565b7fffffffffffffffffffffffffffffffffffffffffffffffffffffffffffffffe0601f60209267ffffffffffffffff81116106b2575b01160190565b6106ba610421565b6106ac565b9291926106cb82610676565b916106d960405193846104e3565b829481845281830111610023578281602093846000960137010152565b9080601f8301121561002357816020610711933591016106bf565b90565b5060a07ffffffffffffffffffffffffffffffffffffffffffffffffffffffffffffffffc3601126100235767ffffffffffffffff600435818111610023576107609036906004016106f6565b602435828111610023576107789036906004016106f6565b90604435838111610023576107919036906004016106f6565b608435938411610023576107ac6100219436906004016106f6565b92606435926132cc565b50346100235760407ffffffffffffffffffffffffffffffffffffffffffffffffffffffffffffffffc360112610023576004356107f28161039e565b7f9465fa0c962cc76958e6373a993326400c1c94f8be2fe3a952adfa7f60b2ea266109cc60243592610822615483565b61085273ffffffffffffffffffffffffffffffffffffffff821680151590816109ee575b816109e3575b50615173565b6108be6108b861089f6108858473ffffffffffffffffffffffffffffffffffffffff166000526002602052604060002090565b5473ffffffffffffffffffffffffffffffffffffffff1690565b73ffffffffffffffffffffffffffffffffffffffff1690565b156151d8565b6001600052600260205261095e6108f47fe90b7bceb6e7df5418fb78d8ee546e97c83a08bbccc01a0644d599ccd2a7c2e0610885565b61091e8373ffffffffffffffffffffffffffffffffffffffff166000526002602052604060002090565b9073ffffffffffffffffffffffffffffffffffffffff167fffffffffffffffffffffffff0000000000000000000000000000000000000000825416179055565b60016000526002602052610992817fe90b7bceb6e7df5418fb78d8ee546e97c83a08bbccc01a0644d599ccd2a7c2e061091e565b6109a56109a0600354613024565b600355565b60405173ffffffffffffffffffffffffffffffffffffffff90911681529081906020820190565b0390a180600454036109da57005b61002190615401565b90503014153861084c565b60018114159150610846565b600091031261002357565b50346100235760007ffffffffffffffffffffffffffffffffffffffffffffffffffffffffffffffffc36011261002357602060405173ffffffffffffffffffffffffffffffffffffffff7f0000000000000000000000000000000000000000000000000000000000000000168152f35b50346100235760807ffffffffffffffffffffffffffffffffffffffffffffffffffffffffffffffffc3601126100235767ffffffffffffffff60243581811161002357610ac69036906004016106f6565b60443591821161002357610ae16100219236906004016106f6565b606435916004356144f9565b50346100235760c07ffffffffffffffffffffffffffffffffffffffffffffffffffffffffffffffffc3601126100235767ffffffffffffffff60243581811161002357610b3e9036906004016103f3565b60443583811161002357610b569036906004016103f3565b60649291923585811161002357610b719036906004016103f3565b9160843596871161002357610b8d6100219736906004016103f3565b95909460a435976004356128c8565b60643590600282101561002357565b60807ffffffffffffffffffffffffffffffffffffffffffffffffffffffffffffffffc82011261002357600435610be18161039e565b91602435916044359067ffffffffffffffff821161002357610c05916004016106f6565b9060643560028110156100235790565b503461002357610021610c2736610bab565b92610c4e73ffffffffffffffffffffffffffffffffffffffff600994939454163314612ce2565b7f5c2ccd596dc7b5bf1b7a39d3a4718027b28cf9ef9cb76ff1b05db0ea60c5aaba61016060405160808152600660808201527f73616d706c65000000000000000000000000000000000000000000000000000060a082015260c06020820152602a60c08201527f307832383864316436383233313130313837333642383230323934443232456460e08201527f3044424533373231383800000000000000000000000000000000000000000000610100820152600a604082015260056101208060608401528201527f636861696e000000000000000000000000000000000000000000000000000000610140820152a1613660565b50346100235760207ffffffffffffffffffffffffffffffffffffffffffffffffffffffffffffffffc360112610023576020610d89600435610d848161039e565b614eeb565b6040519015158152f35b50346100235760207ffffffffffffffffffffffffffffffffffffffffffffffffffffffffffffffffc360112610023576020600435610dd18161039e565b73ffffffffffffffffffffffffffffffffffffffff8091169060018214159182610e02575b50506040519015158152f35b909150600052600282526040600020541615153880610df6565b50346100235760007ffffffffffffffffffffffffffffffffffffffffffffffffffffffffffffffffc360112610023576020604051468152f35b5034610023577ffffffffffffffffffffffffffffffffffffffffffffffffffffffffffffffffc6060813601126100235760043567ffffffffffffffff91828211610023576101609082360301126100235760443591610ecf73ffffffffffffffffffffffffffffffffffffffff600954163314612ce2565b6024610edf813584600401612d7a565b9201351015610f685781610f0392610f07575b506040519081529081906020820190565b0390f35b600080809260405190337ffffffffffffffffffffffffffffffffffffffffffffffffffffffffffffffffff1503d15610f63573d610f4481610676565b90610f5260405192836104e3565b8152600060203d92013e5b38610ef2565b610f5d565b60646040517f08c379a000000000000000000000000000000000000000000000000000000000815260206004820152601c60248201527f6163636f756e743a206e6f6e73657175656e7469616c206e6f6e6365000000006044820152fd5b5034610023576020610d89610fda36610bab565b92919091614de9565b5034610023577ffffffffffffffffffffffffffffffffffffffffffffffffffffffffffffffffc608081360112610023576024359067ffffffffffffffff80831161002357611037600493369085016103f3565b6044358381116100235761104e90369087016103f3565b93606435908111610023576110c39560209561107a6110736110d29436908c016103f3565b36916106bf565b8781519101209360405198899788977f5f6970c30000000000000000000000000000000000000000000000000000000089528c358d8a0152608060248a0152608489019161287c565b9286840301604487015261287c565b9060648301520381600073ffffffffffffffffffffffffffffffffffffffff7f0000000000000000000000000000000000000000000000000000000000000000165af1908115611183575b600091611155575b501561112d57005b6040517f500c44b4000000000000000000000000000000000000000000000000000000008152fd5b611176915060203d811161117c575b61116e81836104e3565b810190612864565b38611125565b503d611164565b61118b6128bb565b61111d565b918091926000905b8282106111b05750116111a9575050565b6000910152565b91508060209183015181860152018291611198565b907fffffffffffffffffffffffffffffffffffffffffffffffffffffffffffffffe0601f60209361120181518092818752878088019101611190565b0116010190565b50346100235761121a610fda36610bab565b6040519060203d8301016040523d82523d6000602084013e610f03604051928392151583526040602084015260408301906111c5565b9060206107119281815201906111c5565b50346100235760407ffffffffffffffffffffffffffffffffffffffffffffffffffffffffffffffffc360112610023576004356024356020817fffffffffffffffffffffffffffffffffffffffffffffffffffffffffffffffff04811182151516611308575b6005906112d583831b6154ea565b9360005b8481106112ee5760405180610f038882611250565b80611303918301548482871b89010152613024565b6112d9565b611310612a30565b6112c7565b50346100235760207ffffffffffffffffffffffffffffffffffffffffffffffffffffffffffffffffc3601126100235760043560005260076020526020604060002054604051908152f35b50346100235760207ffffffffffffffffffffffffffffffffffffffffffffffffffffffffffffffffc360112610023577fecdf3a3effea5783a3c4c2140e677577666428d44ed9d474a0b3a4c9943f844061149e6004356113c08161039e565b6113c8615483565b61140a73ffffffffffffffffffffffffffffffffffffffff808316801515806114a3575b6113f590614d1f565b60005260016020526040600020541615614d84565b6001600081905260205261146a6114407fcc69885fda6bcc1a4ace058b4a62bf5e179ea78fd58a1ccd71c22cc9b688792f610885565b61091e8373ffffffffffffffffffffffffffffffffffffffff166000526001602052604060002090565b600160008190526020526109a5817fcc69885fda6bcc1a4ace058b4a62bf5e179ea78fd58a1ccd71c22cc9b688792f61091e565b0390a1005b5060018114156113ec565b50346100235760207ffffffffffffffffffffffffffffffffffffffffffffffffffffffffffffffffc360112610023577f610f7ff2b304ae8903c3de74c60c6ab1f7d6226b3f52c5161905bb5ad4039c93602060043561150c615483565b61151a6003548211156150a9565b611527600182101561510e565b80600455604051908152a1005b506101407ffffffffffffffffffffffffffffffffffffffffffffffffffffffffffffffffc3601126100235760043561156c8161039e565b67ffffffffffffffff6044358181116100235761158d9036906004016103f3565b90611596610b9c565b9160e435906115a48261039e565b6115ac6103d8565b926101243595861161002357610f03966115cd6115e39736906004016106f6565b9560c4359360a435936084359360243590613b82565b60405190151581529081906020820190565b50346100235760a07ffffffffffffffffffffffffffffffffffffffffffffffffffffffffffffffffc360112610023576064368111610023573660a411610023576020906040516116458161048e565b6024815b8382106116675784610d898461165e3661053e565b90600435615cc4565b81358152908401908401611649565b50346100235760407ffffffffffffffffffffffffffffffffffffffffffffffffffffffffffffffffc3601126100235773ffffffffffffffffffffffffffffffffffffffff6004356116c78161039e565b16600052600860205260406000206024356000526020526020604060002054604051908152f35b60209067ffffffffffffffff8111611708575b60051b0190565b611710610421565b611701565b50346100235760807ffffffffffffffffffffffffffffffffffffffffffffffffffffffffffffffffc3601126100235767ffffffffffffffff6004358181116100235761176690369060040161036d565b60249081358481116100235761178090369060040161036d565b916044358681116100235736602382011215610023578060040135946117a5866116ee565b956117b360405197886104e3565b808752602098828a89019260051b8501019336851161002357838101925b8584106117ee576100218b8b8b8b8b6117e8610b9c565b9461309e565b8335838111610023578c9161180983928836918701016106f6565b8152019301926117d1565b50346100235760607ffffffffffffffffffffffffffffffffffffffffffffffffffffffffffffffffc3601126100235767ffffffffffffffff602435818111610023576118659036906004016106f6565b604435918211610023576118806100219236906004016106f6565b906004356140d1565b90815180825260208080930193019160005b8281106118a9575050505090565b835173ffffffffffffffffffffffffffffffffffffffff168552938101939281019260010161189b565b5034610023576000807ffffffffffffffffffffffffffffffffffffffffffffffffffffffffffffffffc36011261198f5761190f600354614ff5565b9080600191828252600260209281845273ffffffffffffffffffffffffffffffffffffffff9160409386848685205416905b611958575b855187815280610f03818a018c611889565b841687811461198a579081889261196f838c61307c565b52845282875261198485878620541691613024565b91611941565b611946565b80fd5b50346100235760007ffffffffffffffffffffffffffffffffffffffffffffffffffffffffffffffffc360112610023576020600554604051908152f35b50346100235760007ffffffffffffffffffffffffffffffffffffffffffffffffffffffffffffffffc36011261002357602073ffffffffffffffffffffffffffffffffffffffff60095416604051908152f35b50346100235760407ffffffffffffffffffffffffffffffffffffffffffffffffffffffffffffffffc36011261002357600435611a5e8161039e565b60243567ffffffffffffffff811161002357600091611a82839236906004016106f6565b90602082519201905af46000523d6020523d600060403e60403d016000fd5b5034610023576101007ffffffffffffffffffffffffffffffffffffffffffffffffffffffffffffffffc3601126100235767ffffffffffffffff60043581811161002357611af390369060040161036d565b604435611aff8161039e565b60643593841161002357611b1a6100219436906004016103f3565b60843591611b278361039e565b60a43593611b348561039e565b611b3c6103e6565b9660c43596602435916136d3565b9073ffffffffffffffffffffffffffffffffffffffff611b77602092959495604085526040850190611889565b9416910152565b50346100235760407ffffffffffffffffffffffffffffffffffffffffffffffffffffffffffffffffc36011261002357600435611bba8161039e565b6001906000908273ffffffffffffffffffffffffffffffffffffffff60243581841683148015611d2a575b611bee90614f2b565b611bf9811515614f90565b611c30610885611c0883614ff5565b969573ffffffffffffffffffffffffffffffffffffffff166000526001602052604060002090565b955b611c88575b50841603611c51575b8152610f0360405192839283611b4a565b9150611c82611c68611c6284613a8d565b8361307c565b5173ffffffffffffffffffffffffffffffffffffffff1690565b91611c40565b818695949516838115159182611d1f575b505080611d16575b15611d0e57611d08611d0261088588611cdc899a611cc18a9b8a9b61307c565b9073ffffffffffffffffffffffffffffffffffffffff169052565b73ffffffffffffffffffffffffffffffffffffffff166000526001602052604060002090565b96613024565b93611c32565b939293611c37565b50808510611ca1565b141590508338611c99565b50611bee611d3785614eeb565b9050611be5565b50346100235760207ffffffffffffffffffffffffffffffffffffffffffffffffffffffffffffffffc3601126100235760043533600052600260205273ffffffffffffffffffffffffffffffffffffffff6040600020541615611e105780611de4611dde600093611dcf3373ffffffffffffffffffffffffffffffffffffffff166000526008602052604060002090565b90600052602052604060002090565b60019055565b6040519033907ff2a0eb156472d1440255b0d7c1e19cc07115d1051fe605b0dce69acfec884d9c8484a3f35b60646040517f08c379a000000000000000000000000000000000000000000000000000000000815260206004820152600560248201527f47533033300000000000000000000000000000000000000000000000000000006044820152fd5b6101407ffffffffffffffffffffffffffffffffffffffffffffffffffffffffffffffffc82011261002357600435611ea58161039e565b91602435916044359067ffffffffffffffff821161002357611ec9916004016103f3565b9091606435600281101561002357906084359060a4359060c4359060e435611ef08161039e565b9061010435611efe8161039e565b906101243590565b5034610023576020611f2c611f1a36611e6e565b999890989791979692969593956148c3565b818151910120604051908152f35b507f4e487b7100000000000000000000000000000000000000000000000000000000600052603260045260246000fd5b50346100235760407ffffffffffffffffffffffffffffffffffffffffffffffffffffffffffffffffc36011261002357602435600435600052600a6020526040600020906002811015610023576020910154604051908152f35b50346100235760407ffffffffffffffffffffffffffffffffffffffffffffffffffffffffffffffffc360112610023576004356120008161039e565b6024359061200d8261039e565b612015615483565b73ffffffffffffffffffffffffffffffffffffffff808316908115158061218a575b61204090614d1f565b8083166000526001602052604060002054160361212c57816120d761149e9261091e6120b06108857faab4fa2b463f581b2b32cb3b7e3b704b9ce37cc209b5fb4d77e593ace40542769773ffffffffffffffffffffffffffffffffffffffff166000526001602052604060002090565b9173ffffffffffffffffffffffffffffffffffffffff166000526001602052604060002090565b6109a56121048273ffffffffffffffffffffffffffffffffffffffff166000526001602052604060002090565b7fffffffffffffffffffffffff00000000000000000000000000000000000000008154169055565b60646040517f08c379a000000000000000000000000000000000000000000000000000000000815260206004820152600560248201527f47533130330000000000000000000000000000000000000000000000000000006044820152fd5b506001821415612037565b50346100235760207ffffffffffffffffffffffffffffffffffffffffffffffffffffffffffffffffc360112610023577f1151116914515bc0891ff9047a6cb32cf902546f83066499bcf8ba33d2353fa261149e6004356121f58161039e565b6121fd615483565b73ffffffffffffffffffffffffffffffffffffffff811680612266575b507f4a204f620c8c5ccdca3fd54d003badd85ba500436a431f0cbda4f558c93c34c881905560405173ffffffffffffffffffffffffffffffffffffffff90911681529081906020820190565b6040517f01ffc9a70000000000000000000000000000000000000000000000000000000081527fe6d7a83a0000000000000000000000000000000000000000000000000000000060048201526122d891602090829060249082905afa9081156122fc575b6000916122de575b50614aee565b3861221a565b6122f6915060203d811161117c5761116e81836104e3565b386122d2565b6123046128bb565b6122ca565b50346100235760607ffffffffffffffffffffffffffffffffffffffffffffffffffffffffffffffffc360112610023577f9465fa0c962cc76958e6373a993326400c1c94f8be2fe3a952adfa7f60b2ea2661149e61091e7ff8d49fc529812e9a7c5c50e69c20f0dccc0db8fa95c98bc58cc9a4f1c1299eaf6125136004356123908161039e565b6124e6602435916123a08361039e565b6044359586916123af8361039e565b6123b7615483565b61246673ffffffffffffffffffffffffffffffffffffffff6123e981861680151590816109ee57816109e35750615173565b61241c6108b861089f6108858873ffffffffffffffffffffffffffffffffffffffff166000526002602052604060002090565b86168015158061253d575b61243090615173565b61246061089f6108858573ffffffffffffffffffffffffffffffffffffffff166000526002602052604060002090565b14615370565b6124c06124966108858773ffffffffffffffffffffffffffffffffffffffff166000526002602052604060002090565b61091e8573ffffffffffffffffffffffffffffffffffffffff166000526002602052604060002090565b73ffffffffffffffffffffffffffffffffffffffff166000526002602052604060002090565b6109a56121048273ffffffffffffffffffffffffffffffffffffffff166000526002602052604060002090565b0390a160405173ffffffffffffffffffffffffffffffffffffffff90911681529081906020820190565b506001811415612427565b50346100235760007ffffffffffffffffffffffffffffffffffffffffffffffffffffffffffffffffc360112610023576020600454604051908152f35b503461002357610f0361259a611f1a36611e6e565b6040519182916020835260208301906111c5565b50346100235760207ffffffffffffffffffffffffffffffffffffffffffffffffffffffffffffffffc360112610023577f5ac6c46c93c8d0e53714ba3b53db3e7c046da994313d7ed0d192028bc7c228b0602060043561260d8161039e565b612615615483565b807f6c9a6c4a39284e37ed1cf53d337577d14212a4870fb976a4366c693b939918d55573ffffffffffffffffffffffffffffffffffffffff60405191168152a1005b50346100235760007ffffffffffffffffffffffffffffffffffffffffffffffffffffffffffffffffc360112610023576020612691614879565b604051908152f35b50346100235760607ffffffffffffffffffffffffffffffffffffffffffffffffffffffffffffffffc360112610023576004356126d58161039e565b7ff8d49fc529812e9a7c5c50e69c20f0dccc0db8fa95c98bc58cc9a4f1c1299eaf6109cc6024356127058161039e565b6127ac60443594612714615483565b61272a86612723600354613a8d565b10156150a9565b61275573ffffffffffffffffffffffffffffffffffffffff84168015158061253d5761243090615173565b61091e6127856108858573ffffffffffffffffffffffffffffffffffffffff166000526002602052604060002090565b9173ffffffffffffffffffffffffffffffffffffffff166000526002602052604060002090565b6127d96121048273ffffffffffffffffffffffffffffffffffffffff166000526002602052604060002090565b6109a56109a06003546153d5565b50346100235760007ffffffffffffffffffffffffffffffffffffffffffffffffffffffffffffffffc36011261002357610f036040516128268161048e565b600581527f312e342e3000000000000000000000000000000000000000000000000000000060208201526040519182916020835260208301906111c5565b90816020910312610023575180151581036100235790565b601f82602094937fffffffffffffffffffffffffffffffffffffffffffffffffffffffffffffffe0938186528686013760008582860101520116010190565b506040513d6000823e3d90fd5b6128e0612979939495966020939b9a999836916106bf565b8281519101209060405193849283927f1876eed9000000000000000000000000000000000000000000000000000000008452600484015260c0602484015261292d8d8860c486019161287c565b6129637ffffffffffffffffffffffffffffffffffffffffffffffffffffffffffffffffc91828682030160448701528b8b61287c565b9160648501528382030160848401528a8a61287c565b8a60a48301520381600073ffffffffffffffffffffffffffffffffffffffff7f0000000000000000000000000000000000000000000000000000000000000000165af1908115612a23575b600091612a05575b50156129db576103c996613183565b60046040517f500c44b4000000000000000000000000000000000000000000000000000000008152fd5b612a1d915060203d811161117c5761116e81836104e3565b386129cc565b612a2b6128bb565b6129c4565b507f4e487b7100000000000000000000000000000000000000000000000000000000600052601160045260246000fd5b807fffffffffffffffffffffffffffffffffffffffffffffffffffffffffffffffff0460401181151516612a95575b60061b90565b612a9d612a30565b612a8f565b807fffffffffffffffffffffffffffffffffffffffffffffffffffffffffffffffff0460041181151516612ad7575b60021b90565b612adf612a30565b612ad1565b600790807fffffffffffffffffffffffffffffffffffffffffffffffffffffffffffffffff04821181151516612b18570290565b612b20612a30565b0290565b91908082526020809201929160005b828110612b41575050505090565b90919293828060019273ffffffffffffffffffffffffffffffffffffffff8835612b6a8161039e565b16815201950193929101612b33565b9894939192612b9d612bd19260e09a959d9c98999d8c6101008091528d0191612b24565b9060208b015273ffffffffffffffffffffffffffffffffffffffff9788958680951660408d01528b830360608d015261287c565b991660808801521660a086015260c085015216910152565b919395979973ffffffffffffffffffffffffffffffffffffffff909b91939597999b167fffffffffffffffffffffffff0000000000000000000000000000000000000000600954161760095560005260209a600a8c526040600020906000905b60028210612ccd57505050936103c99a9793612c9b97937fb63e800d000000000000000000000000000000000000000000000000000000009b9793612cc79b976040519d8e9c8d015260248c01612b79565b037fffffffffffffffffffffffffffffffffffffffffffffffffffffffffffffffe081018352826104e3565b3061354c565b60018e82829351865501930191019091612c49565b15612ce957565b60646040517f08c379a000000000000000000000000000000000000000000000000000000000815260206004820152601c60248201527f6163636f756e743a206e6f742066726f6d20456e747279506f696e74000000006044820152fd5b60405191906000835b60028210612d64575050506103c98261048e565b6001602081928554815201930191019091612d50565b610140810135907fffffffffffffffffffffffffffffffffffffffffffffffffffffffffffffffe1813603018212156100235767ffffffffffffffff9291018035838111610023576020918281019180360383136100235781019460c082858801970312610023576060820135818111610023578685612dfc928501016106f6565b906080830135818111610023578786612e17928601016106f6565b9260a081013591821161002357612e4c612e7f97612e7995612e7495612e46612e839c8b60c0988801016106f6565b92612f33565b95612e55610531565b953586526040820135908601520135600052600a602052604060002090565b612d47565b91615cc4565b1590565b612e8c57600090565b600190565b90612ea460209282815194859201611190565b0190565b6103c9919392936040519485918351612ec981602096878088019101611190565b8301612edd82518093878085019101611190565b01612ef082518093868085019101611190565b010380855201836104e3565b60406103c99193929381519481612f1d879351809260208087019101611190565b82019060208201520360208101855201836104e3565b612ff89160206000612fe4612fd883988398612fd2612fcd612fd899612f887fffffffffffffffffffffffffffffffff00000000000000000000000000000000612f7e8184166159f1565b9260801b166159f1565b604051917f30780000000000000000000000000000000000000000000000000000000000008b8401526022830152604282015260428152612fc8816104aa565b615bb8565b6156c4565b90612ea8565b60405191828092612e91565b039060025afa15613017575b835190612efc565b039060025afa1561300a575b60005190565b6130126128bb565b613004565b61301f6128bb565b612ff0565b6001907fffffffffffffffffffffffffffffffffffffffffffffffffffffffffffffffff8114613052570190565b612ea4612a30565b919081101561306a5760051b0190565b611710611f3a565b356107118161039e565b6020918151811015613091575b60051b010190565b613099611f3a565b613089565b9390959492956130c773ffffffffffffffffffffffffffffffffffffffff600954163314612ce2565b815181036131255760005b8181106130e3575050505050509050565b8061311b866130fe6130f961312095878c61305a565b613072565b613109848d8a61305a565b35613114858961307c565b5191613660565b613024565b6130d2565b60646040517f08c379a000000000000000000000000000000000000000000000000000000000815260206004820152601360248201527f77726f6e67206172726179206c656e67746873000000000000000000000000006044820152fd5b6131d57f5c2ccd596dc7b5bf1b7a39d3a4718027b28cf9ef9cb76ff1b05db0ea60c5aaba97936131e8959796976131c7604051998a9960808b5260808b019161287c565b9188830360208a015261287c565b926040860152848303606086015261287c565b0390a1565b9081602091031261002357516107118161039e565b9597969260c09591946132526132609261324461326e9673ffffffffffffffffffffffffffffffffffffffff809a168c5260e060208d015260e08c01906111c5565b908a820360408c01526111c5565b9088820360608a01526111c5565b9086820360808801526111c5565b9560a085015216910152565b959493906080936132ab6132c79461329d6132b99460a08c5260a08c01906111c5565b908a820360208c01526111c5565b9088820360408a01526111c5565b9086820360608801526111c5565b930152565b939192909273ffffffffffffffffffffffffffffffffffffffff91827f000000000000000000000000000000000000000000000000000000000000000016926040517f935b13f60000000000000000000000000000000000000000000000000000000081526133bd61334b84838b816020968795869360048301611250565b03818c5afa90811561353f575b600091613512575b50886000876040518097819682957f095ea7b3000000000000000000000000000000000000000000000000000000008452600484016020909392919373ffffffffffffffffffffffffffffffffffffffff60408201951681520152565b0393165af18015613505575b6134e7575b50507f000000000000000000000000000000000000000000000000000000000000000016803b156100235760008661343d92848a604051958694859384937fc62c20020000000000000000000000000000000000000000000000000000000085528d8c33943060048901613202565b039134905af180156134da575b6134c7575b50823b15610023576000946134958692604051988997889687957fb54170840000000000000000000000000000000000000000000000000000000087526004870161327a565b03925af180156134ba575b6134a75750565b806134b46103c992610451565b806109fa565b6134c26128bb565b6134a0565b806134b46134d492610451565b3861344f565b6134e26128bb565b61344a565b816134fd92903d1061117c5761116e81836104e3565b5038806133ce565b61350d6128bb565b6133c9565b6135329150833d8511613538575b61352a81836104e3565b8101906131ed565b38613360565b503d613520565b6135476128bb565b613358565b60008281939260208394519201907ffffffffffffffffffffffffffffffffffffffffffffffffffffffffffffffffff43d906040519160208184010160405280835283602084013e1561359d575050565b604481511061365c576004810151810190602081602484019303126136545760248101519067ffffffffffffffff8211613658570181604382011215613654576024810151926135ec84610676565b926135fa60405194856104e3565b8484526044858401011161198f57506136509261361e916044602085019101611190565b6040519182917f08c379a000000000000000000000000000000000000000000000000000000000835260048301611250565b0390fd5b8280fd5b8380fd5b5080fd5b9061366c9392916149e9565b3d906040519060208383010160405282825260009283602084013e1561359d575050565b93916060939695916136aa91608087526080870191612b24565b95602085015273ffffffffffffffffffffffffffffffffffffffff809216604085015216910152565b9892949793909691976136e5886116ee565b6136f260405191826104e3565b88815260208082018a60051b8d0190368211610023578d905b8282106137d657505050506137756137929795938b9a999795936137537f141df868a6331af528e38c83b7aa03edc19be66e37ae67f9285bf4f8e3c6a1a89d61377b9561523d565b73ffffffffffffffffffffffffffffffffffffffff89166137a95736916106bf565b85614bb8565b82613797575b505050604051948594339886613690565b0390a2565b6137a092613f0f565b50388080613781565b6137d1897f6c9a6c4a39284e37ed1cf53d337577d14212a4870fb976a4366c693b939918d555565b611073565b83809183356137e48161039e565b81520191019061370b565b9060028210156137fc5752565b7f4e487b7100000000000000000000000000000000000000000000000000000000600052602160045260246000fd5b9a9893928b97929a96919598939d9c9d73ffffffffffffffffffffffffffffffffffffffff9b8c998a8099168152602001528c6101606040819201528d01906138739261287c565b9760608c01613881916137ef565b60808b015260a08a015260c08901521660e0870152166101008501528381036101208501526138af916111c5565b9316906101400152565b6109c4907ffffffffffffffffffffffffffffffffffffffffffffffffffffffffffffff63b8111613052570190565b6101f4907ffffffffffffffffffffffffffffffffffffffffffffffffffffffffffffffe0b8111613052570190565b6002907ffffffffffffffffffffffffffffffffffffffffffffffffffffffffffffffffd8111613052570190565b6003907ffffffffffffffffffffffffffffffffffffffffffffffffffffffffffffffffc8111613052570190565b6001907ffffffffffffffffffffffffffffffffffffffffffffffffffffffffffffffffe8111613052570190565b6004907ffffffffffffffffffffffffffffffffffffffffffffffffffffffffffffffffb8111613052570190565b7f0606060606060606060606060606060606060606060606060606060606060606907ff9f9f9f9f9f9f9f9f9f9f9f9f9f9f9f9f9f9f9f9f9f9f9f9f9f9f9f9f9f9f9f98111613052570190565b81198111613052570190565b15613a2f57565b60646040517f08c379a000000000000000000000000000000000000000000000000000000000815260206004820152600560248201527f47533031300000000000000000000000000000000000000000000000000000006044820152fd5b7fffffffffffffffffffffffffffffffffffffffffffffffffffffffffffffffff9060018110613052570190565b7ffffffffffffffffffffffffffffffffffffffffffffffffffffffffffffff63c906109c48110613052570190565b80600310613af9575b60030390565b613b01612a30565b613af3565b818110613b11570390565b613b19612a30565b0390565b15613b2457565b60646040517f08c379a000000000000000000000000000000000000000000000000000000000815260206004820152600560248201527f47533031330000000000000000000000000000000000000000000000000000006044820152fd5b838a899583859f9e9d9995968b978f9d9e8b9f839e8a839e60055498899773ffffffffffffffffffffffffffffffffffffffff809c1697613bc29a6148c3565b90613bcc90613024565b600555805160208201209c613be1918e6140d1565b7f4a204f620c8c5ccdca3fd54d003badd85ba500436a431f0cbda4f558c93c34c85416998a1515998a613da8575b5090613c7891613c8093613c515a613c4a613c45613c36613c2f8b612a60565b603f900490565b613c3f8b6138b9565b90615694565b6138e8565b1115613a28565b5a9f613c7289159c8d600014613da157613c6a5a613abb565b9536916106bf565b91614a6c565b9b5a9061562a565b908b908c15613d97575b508015613d8f575b613c9b90613b1d565b60009515613d7b575b505050505085600014613d44576040805185815260208101929092527f442e715f626346e8c54381002da614f62bee8d27386535b2521ec8540898556e91a15b613cec575050565b803b15610023576040517f93271368000000000000000000000000000000000000000000000000000000008152600481019290925283151560248301526000908290604490829084905af180156134ba576134a75750565b6040805185815260208101929092527f23428b18acfb3ea64b08dc0c1d296ea9c09702c09083ca5272e64d115b687d2391a1613ce4565b613d859550614054565b3880808080613ca4565b508515613c92565b9050151538613c8a565b8895611073565b91908b3b1561002357838f6000848f8e838f958f8f9c8f9c8f99613c809f93613c789f94613e0b958f9d6040519e8f9d8e9c8d9b8c9a7f75f0bb52000000000000000000000000000000000000000000000000000000008c526004339c0161382b565b03925af18015613e38575b613e25575b5093509091613c0f565b806134b4613e3292610451565b38613e1b565b613e406128bb565b613e16565b15613e4c57565b60646040517f08c379a000000000000000000000000000000000000000000000000000000000815260206004820152600560248201527f47533031320000000000000000000000000000000000000000000000000000006044820152fd5b15613eb157565b60646040517f08c379a000000000000000000000000000000000000000000000000000000000815260206004820152600560248201527f47533031310000000000000000000000000000000000000000000000000000006044820152fd5b90929173ffffffffffffffffffffffffffffffffffffffff919082811661404e575032935b808316613f805750600080806103c994613f5b82953a6001108414613f79576001906155d4565b97889183918315613f6f575b1690f1613eaa565b6108fc9250613f67565b3a906155d4565b60209294613f90613ff493615586565b95866000948592612c9b6040519384928a8401977fa9059cbb00000000000000000000000000000000000000000000000000000000895216602484016020909392919373ffffffffffffffffffffffffffffffffffffffff60408201951681520152565b51927fffffffffffffffffffffffffffffffffffffffffffffffffffffffffffffd8f05a01f13d80156140445760201461403357506103c96000613e45565b6103c9906000511590151715613e45565b506103c990613e45565b93613f34565b92949373ffffffffffffffffffffffffffffffffffffffff93908481166140cb575032955b8085166140b0575060006103c994613f5b82956140988496859661567f565b903a811085146140a857906155d4565b503a906155d4565b91613ff4936140c6613f9092602097999461567f565b6155d4565b95614079565b916004549182156140e5576103c9936144f9565b60646040517f08c379a000000000000000000000000000000000000000000000000000000000815260206004820152600560248201527f47533030310000000000000000000000000000000000000000000000000000006044820152fd5b1561414a57565b60646040517f08c379a000000000000000000000000000000000000000000000000000000000815260206004820152600560248201527f47533032300000000000000000000000000000000000000000000000000000006044820152fd5b60ff7ffffffffffffffffffffffffffffffffffffffffffffffffffffffffffffffffc911660048110613052570190565b156141e057565b60646040517f08c379a000000000000000000000000000000000000000000000000000000000815260206004820152600560248201527f47533032350000000000000000000000000000000000000000000000000000006044820152fd5b1561424557565b60646040517f08c379a000000000000000000000000000000000000000000000000000000000815260206004820152600560248201527f47533032370000000000000000000000000000000000000000000000000000006044820152fd5b156142aa57565b60646040517f08c379a000000000000000000000000000000000000000000000000000000000815260206004820152600560248201527f47533032310000000000000000000000000000000000000000000000000000006044820152fd5b1561430f57565b60646040517f08c379a000000000000000000000000000000000000000000000000000000000815260206004820152600560248201527f47533032320000000000000000000000000000000000000000000000000000006044820152fd5b1561437457565b60646040517f08c379a000000000000000000000000000000000000000000000000000000000815260206004820152600560248201527f47533032330000000000000000000000000000000000000000000000000000006044820152fd5b9081602091031261002357517fffffffff00000000000000000000000000000000000000000000000000000000811681036100235790565b9091614421610711936040845260408401906111c5565b9160208184039101526111c5565b1561443657565b60646040517f08c379a000000000000000000000000000000000000000000000000000000000815260206004820152600560248201527f47533032340000000000000000000000000000000000000000000000000000006044820152fd5b1561449b57565b60646040517f08c379a000000000000000000000000000000000000000000000000000000000815260206004820152600560248201527f47533032360000000000000000000000000000000000000000000000000000006044820152fd5b90929192614512845161450b8561552f565b1115614143565b600091825b84841061452657505050505050565b8461468f9184848961454e8982906041020160208101519060ff604160408301519201511692565b929160ff811680614715575050926146398580946146047fffffffff00000000000000000000000000000000000000000000000000000000956145cd6145c573ffffffffffffffffffffffffffffffffffffffff6146579b6145be6146899f9e519a60209b8c809b01201461423e565b169d61552f565b8410156142a3565b6145e26145d98461563c565b82511015614308565b6145fb8484830101936145f685519161563c565b61567f565b9051101561436d565b604051809381927f20c13b0b00000000000000000000000000000000000000000000000000000000988984526004840161440a565b03818b5afa918215614708575b6000926146db575b5050161461442f565b73ffffffffffffffffffffffffffffffffffffffff90818085169116811191826146a1575b5081614695575b50614494565b93613024565b92614517565b60019150141538614683565b9091506146d16108858573ffffffffffffffffffffffffffffffffffffffff166000526002602052604060002090565b161515903861467c565b6146fa9250803d10614701575b6146f281836104e3565b8101906143d2565b388061464e565b503d6146e8565b6147106128bb565b614646565b945095965093505060019182811460001461479d57505050614689915073ffffffffffffffffffffffffffffffffffffffff16918233148015614761575b61475c906141d9565b614657565b5061475c61479386611dcf8673ffffffffffffffffffffffffffffffffffffffff166000526008602052604060002090565b5415159050614753565b601e101561484857600092936148226040928351966147fd8b6020996147f481612c9b8d82019485603c917f19457468657265756d205369676e6564204d6573736167653a0a3332000000008252601c8201520190565b519020946141a8565b9451948594859094939260ff6060936080840197845216602083015260408201520152565b84805203915afa1561483b575b61468960005191614657565b6148436128bb565b61482f565b916020936148226000946040519384938b859094939260ff6060936080840197845216602083015260408201520152565b60405160208101907f47e79534a245952e8b16893a336b85a3d9ea9fa8c573f3d803afb92a794692188252466040820152306060820152606081526148bd816104aa565b51902090565b94909895917fbb8310d486368db6bd6f849402fdd73ad53d316b5a4b2644ad6efe0f941286d89a98946148fe6149419260409a9636916106bf565b6020815191012089519b60208d019d8e528c73ffffffffffffffffffffffffffffffffffffffff9b8c809b1691015260608d015260808c015260a08b01906137ef565b60c089015260e0880152610100870152166101208501521661014083015261016090818301528152614972816104c6565b519020610711614980614879565b612c9b6040519384926020840190916042927f190000000000000000000000000000000000000000000000000000000000000083527f01000000000000000000000000000000000000000000000000000000000000006001840152600283015260228201520190565b9291909260028310156137fc576000938493600103614a2f5750602082519201907ffffffffffffffffffffffffffffffffffffffffffffffffffffffffffffffffff490565b602083519301917ffffffffffffffffffffffffffffffffffffffffffffffffffffffffffffffffff190565b90600092839260208351930191f490565b93909360028410156137fc576000948594600103614a90575060208351930191f490565b9060208451940192f190565b507f6c9a6c4a39284e37ed1cf53d337577d14212a4870fb976a4366c693b939918d5548015610021576000808092368280373360601b3652818060143601925af13d82803e15614aea573d90f35b3d90fd5b15614af557565b60646040517f08c379a000000000000000000000000000000000000000000000000000000000815260206004820152600560248201527f47533330300000000000000000000000000000000000000000000000000000006044820152fd5b15614b5a57565b60646040517f08c379a000000000000000000000000000000000000000000000000000000000815260206004820152600560248201527f47533030300000000000000000000000000000000000000000000000000000006044820152fd5b906001600052600160205273ffffffffffffffffffffffffffffffffffffffff8060406000205416614cc15760016000819052602052614c3e7fcc69885fda6bcc1a4ace058b4a62bf5e179ea78fd58a1ccd71c22cc9b688792f5b60017fffffffffffffffffffffffff0000000000000000000000000000000000000000825416179055565b8216614c48575050565b813b15614c63576103c991614c5e915a91614a5b565b614b53565b60646040517f08c379a000000000000000000000000000000000000000000000000000000000815260206004820152600560248201527f47533030320000000000000000000000000000000000000000000000000000006044820152fd5b60646040517f08c379a000000000000000000000000000000000000000000000000000000000815260206004820152600560248201527f47533130300000000000000000000000000000000000000000000000000000006044820152fd5b15614d2657565b60646040517f08c379a000000000000000000000000000000000000000000000000000000000815260206004820152600560248201527f47533130310000000000000000000000000000000000000000000000000000006044820152fd5b15614d8b57565b60646040517f08c379a000000000000000000000000000000000000000000000000000000000815260206004820152600560248201527f47533130320000000000000000000000000000000000000000000000000000006044820152fd5b929190600133141580614ebe575b15614e6057614e05936149e9565b908115614e3657337f6895c13664aa4f67288b25d7a21d7aaa34916e355fb9b6fae0a139a9085becb86000604051a2565b337facd2c8702804128fdb0db2bb49f6d127dd0181c13fd45dbfe16de0930e2bd3756000604051a2565b60646040517f08c379a000000000000000000000000000000000000000000000000000000000815260206004820152600560248201527f47533130340000000000000000000000000000000000000000000000000000006044820152fd5b5033600052600160205273ffffffffffffffffffffffffffffffffffffffff604060002054161515614df7565b73ffffffffffffffffffffffffffffffffffffffff8091169081600114159182614f1457505090565b909150600052600160205260406000205416151590565b15614f3257565b60646040517f08c379a000000000000000000000000000000000000000000000000000000000815260206004820152600560248201527f47533130350000000000000000000000000000000000000000000000000000006044820152fd5b15614f9757565b60646040517f08c379a000000000000000000000000000000000000000000000000000000000815260206004820152600560248201527f47533130360000000000000000000000000000000000000000000000000000006044820152fd5b90614fff826116ee565b61500c60405191826104e3565b8281527fffffffffffffffffffffffffffffffffffffffffffffffffffffffffffffffe061503a82946116ee565b0190602036910137565b1561504b57565b60646040517f08c379a000000000000000000000000000000000000000000000000000000000815260206004820152600560248201527f47533230300000000000000000000000000000000000000000000000000000006044820152fd5b156150b057565b60646040517f08c379a000000000000000000000000000000000000000000000000000000000815260206004820152600560248201527f47533230310000000000000000000000000000000000000000000000000000006044820152fd5b1561511557565b60646040517f08c379a000000000000000000000000000000000000000000000000000000000815260206004820152600560248201527f47533230320000000000000000000000000000000000000000000000000000006044820152fd5b1561517a57565b60646040517f08c379a000000000000000000000000000000000000000000000000000000000815260206004820152600560248201527f47533230330000000000000000000000000000000000000000000000000000006044820152fd5b156151df57565b60646040517f08c379a000000000000000000000000000000000000000000000000000000000815260206004820152600560248201527f47533230340000000000000000000000000000000000000000000000000000006044820152fd5b61524960045415615044565b61525681518311156150a9565b60016152648184101561510e565b600081805b6152b0575b50506103c992916152a5614c136152ab9373ffffffffffffffffffffffffffffffffffffffff166000526002602052604060002090565b51600355565b600455565b9091835183101561536a5761534161091e61468984936152d3611c68888a61307c565b92839161530e73ffffffffffffffffffffffffffffffffffffffff808516801515918261535f575b82615354575b82615347575b5050615173565b6124c06108b861089f6108858673ffffffffffffffffffffffffffffffffffffffff166000526002602052604060002090565b91615269565b8416141590503880615307565b308214159250615301565b818b141592506152fb565b9161526e565b1561537757565b60646040517f08c379a000000000000000000000000000000000000000000000000000000000815260206004820152600560248201527f47533230350000000000000000000000000000000000000000000000000000006044820152fd5b7fffffffffffffffffffffffffffffffffffffffffffffffffffffffffffffffff908015613052570190565b60207f610f7ff2b304ae8903c3de74c60c6ab1f7d6226b3f52c5161905bb5ad4039c939161542d615483565b61543b6003548211156150a9565b615448600182101561510e565b80600455604051908152a1565b6040513481527f3d0ce9bfc3ed7d6862dbb28b2dea94561fe714a1b4d019aa8af39730d1ad7c3d60203392a2565b30330361548c57565b60646040517f08c379a000000000000000000000000000000000000000000000000000000000815260206004820152600560248201527f47533033310000000000000000000000000000000000000000000000000000006044820152fd5b906154f482610676565b61550160405191826104e3565b8281527fffffffffffffffffffffffffffffffffffffffffffffffffffffffffffffffe061503a8294610676565b801561558057807fffffffffffffffffffffffffffffffffffffffffffffffffffffffffffffffff04604111600116615573575b6041808202918204036100235790565b61557b612a30565b615563565b50600090565b801561558057807fffffffffffffffffffffffffffffffffffffffffffffffffffffffffffffffff046001116001166155c7575b6001818004036100235790565b6155cf612a30565b6155ba565b90811561562357817fffffffffffffffffffffffffffffffffffffffffffffffffffffffffffffffff048111600116615616575b808202918204036100235790565b61561e612a30565b615608565b5050600090565b80821161002357818110613b11570390565b7fffffffffffffffffffffffffffffffffffffffffffffffffffffffffffffffdf8111615672575b602081019081106100235790565b61567a612a30565b615664565b9061568a9082613a1c565b9081106100235790565b908082106156a0575090565b905090565b9060209180518210156156b757010190565b6156bf611f3a565b010190565b80519061570a6157056156ec6156e76156e06003870696613917565b6003900490565b612aa2565b6156ff6156f886613aea565b6003900690565b90613b06565b6154ea565b90600093845b61571986613945565b8351106158165761580a615810916157f66157ad8961578261577061574a61577c61577661577061574a878f6156a5565b517fff000000000000000000000000000000000000000000000000000000000000001690565b60f81c90565b94613973565b8b6156a5565b908861579d8d6157a361577061574a60ff9586958695613917565b906156a5565b16931691166159b2565b6157eb6157be879694939596613973565b948c6157e06157cc8a613917565b946157d68b613945565b9060001a926156a5565b5360001a918c6156a5565b5360001a91896156a5565b5360001a61580482886156a5565b536139a1565b95613945565b94615710565b91929390945080615828575b50505090565b8060ff8061584961577061574a615843615860978a51613b06565b896156a5565b9260026000911496876158b3575b5016911661592e565b50939160001a61587084876156a5565b5361588861587d84613973565b9160001a91866156a5565b53615894575b80615822565b6158a06158ab91613917565b9160001a91836156a5565b53388061588e565b6158c9915061574a8161579d6157709351613a8d565b38615857565b604051906158dc82610472565b604082527f6768696a6b6c6d6e6f707172737475767778797a303132333435363738392d5f6040837f4142434445464748494a4b4c4d4e4f505152535455565758595a61626364656660208201520152565b9060081b9060101b177fff000000000000000000000000000000000000000000000000000000000000009081615971603f8360121c1661596c6158cf565b6156a5565b51169282615987603f84600c1c1661596c6158cf565b5116926159ad603f826159a1828760061c1661596c6158cf565b5116941661596c6158cf565b511690565b9060081b9060101b17177fff000000000000000000000000000000000000000000000000000000000000009081615971603f8360121c1661596c6158cf565b610711908060401c907fffffffff000000000000000000000000000000000000000000000000000000006fffffffff0000000000000000000000006bffffffff000000000000000084167bffffffff00000000000000000000000000000000000000000000000084161760201c9316911617178060101c907fff00000000000000ff00000000000000ff00000000000000ff000000000000007bff00000000000000ff00000000000000ff00000000000000ff0000007aff00000000000000ff00000000000000ff00000000000000ff000084167eff00000000000000ff00000000000000ff00000000000000ff00000000000084161760081c9316911617177f0f000f000f000f000f000f000f000f000f000f000f000f000f000f000f000f007e0f000f000f000f000f000f000f000f000f000f000f000f000f000f000f000f8260081c169160041c16177f30303030303030303030303030303030303030303030303030303030303030309080198211615bab575b615ba47f0f0f0f0f0f0f0f0f0f0f0f0f0f0f0f0f0f0f0f0f0f0f0f0f0f0f0f0f0f0f0f0f615b9e615b98846139cf565b60041c90565b16612ae4565b9101613a1c565b615bb3612a30565b615b68565b90600091825b8151811015615c175780615c007fff00000000000000000000000000000000000000000000000000000000000000615bf9615c1294866156a5565b5116615c1c565b851a615c0c82856156a5565b53613024565b615bbe565b509150565b7fff000000000000000000000000000000000000000000000000000000000000008082167f41000000000000000000000000000000000000000000000000000000000000008110159081615c99575b50615c74575090565b9060209060f81c60df8111615c8c575b0160f81b1690565b615c94612a30565b615c84565b7f5a000000000000000000000000000000000000000000000000000000000000009150111538615c6b565b909182518015908115615eeb575b8115615ec0575b508015615e92575b615e8a5761071192615cf1616042565b91615e79615cfd610524565b9160008352602092600084820152600060408201528552828151910151615d22610524565b9182528382015260016040820152615d3f838601918083526160df565b90615e6a615d5560408801938085528351616095565b9260608801938452615e5a615e4a615d6b610524565b7f6b17d1f2e12c4247f8bce6e563a440f277037d812deb33a0f4a13945d898c29681527f4fe342e2fe1a7f9b8ee7eb4a7c0f9e162bce33576b315ececbb6406837bf51f58982015260016040820152615dcd60808c0191808352875190616095565b60a08c0152615ddf8151855190616095565b60c08c0152615df18151885190616095565b60e08c0152615e0081516160df565b90615e156101008d0192808452885190616095565b6101208d0152615e288251865190616095565b6101408d0152615e3b8251895190616095565b6101608d015251905190616095565b6101808a01948186525190616095565b6101a08901528251905190616095565b6101c087015251905190616095565b6101e0840152815191015191615ef8565b505050600090565b507fffffffff00000000ffffffffffffffffbce6faada7179e84f3b9cac2fc63255160208401511015615ce1565b7fffffffff00000000ffffffffffffffffbce6faada7179e84f3b9cac2fc6325519150101538615cd9565b6020850151159150615cd2565b939290917fffffffff00000000ffffffffffffffffbce6faada7179e84f3b9cac2fc63255190818410801590616008575b615ffe57615f3782916163a9565b809309918309600080918193608091825b615f6057505050615f5b939495506160ff565b501490565b85615fdc575b888160fe1c600c8460fc1c161780615f93575b5050615f8c90600292831b921b926153d5565b9182615f48565b615fcf9397615f8c976040615fc6615fae85879b989b616012565b5151946020615fbd8289616012565b51015196616012565b510151946161d6565b9590945090928838615f79565b9294615fed9194615ff393966162f3565b916162f3565b949193909392615f66565b5060009450505050565b5081811015615f29565b90601081101561306a5760051b0190565b6040519061603082610472565b60006040838281528260208201520152565b6040519061020080830183811067ffffffffffffffff821117616088575b6040528260005b82811061607357505050565b60209061607e616023565b8184015201616067565b616090610421565b616060565b6160c2916160a1616023565b508151916040602082015191015182519160406020850151940151946161d6565b90604051926160d084610472565b83526020830152604082015290565b6160c2906160eb616023565b5080519060406020820151910151916162f3565b92919081156161ca578160007fffffffff00000001000000000000000000000000ffffffffffffffffffffffff84818096116161c0575b505060405191602083526020808401526020604084015260608301527fffffffff00000001000000000000000000000000fffffffffffffffffffffffd60808301528360a083015260208260c08160057ffffffffffffffffffffffffffffffffffffffffffffffffffffffffffffffffffa1561198f575082905181808280098097099509900990565b0691508338616136565b50509050600090600090565b9395939190816161e857505050929190565b909291949586156162e9577fffffffff00000001000000000000000000000000ffffffffffffffffffffffff9586858196958280838199099b818d999781868180808f9d888009809d099c8d99099c81878d0990099c0990099308958181106162e2575b03958280808960020980099281808481878d09938181106162db575b0360020994818680099809968280896002098308908181106162d4575b039b8c9360020909948181106162cd575b039009978289106162c4575b8591829108928009958287106162bb575b960394030990565b958401956162b3565b978501976162a2565b8301616296565b8301616285565b8201616268565b830161624c565b5094505091929190565b9290917fffffffff00000001000000000000000000000000ffffffffffffffffffffffff809181858009958280808080808c87096004099a800960080992818080808089800980097fffffffff00000001000000000000000000000000fffffffffffffffffffffffc09928009600309088189600209828280098181106163a2575b038981809b1061639b575b039009818110616394575b03940960020990565b830161638b565b8301616380565b8301616375565b7fffffffff00000000ffffffffffffffffbce6faada7179e84f3b9cac2fc63255180821161644a575b60405191602083526020808401526020604084015260608301527fffffffff00000000ffffffffffffffffbce6faada7179e84f3b9cac2fc63254f608083015260a082015260208160c08160057ffffffffffffffffffffffffffffffffffffffffffffffffffffffffffffffffffa15610023575190565b809106906163d256fea2646970667358221220666770453f21834d5b5f7fb78c8c03e9859d304bb9882fc5d4c380474ee8c09e64736f6c634300080f0033",
    "linkReferences": {},
    "deployedLinkReferences": {}
}