{
    "_format": "hh-sol-artifact-1",
    "contractName": "Staking",
    "sourceName": "contracts/test/Satking.sol",
    "abi": [
        {
            "inputs": [],
            "name": "returnStake",
            "outputs": [],
            "stateMutability": "nonpayable",
            "type": "function"
        },
        {
            "inputs": [],
            "name": "stake",
            "outputs": [],
            "stateMutability": "payable",
            "type": "function"
        },
        {
            "stateMutability": "payable",
            "type": "receive"
        }
    ],
    "bytecode": "0x6080806040523461001a576000805561015390816100208239f35b600080fdfe608080604052600436101561001d575b50361561001b57600080fd5b005b600090813560e01c9081633a4b66f1146100b15750637ac665740361000f57346100ae57807ffffffffffffffffffffffffffffffffffffffffffffffffffffffffffffffffc3601126100ae578080808080548181156100a5575b7348701df467ba0efc8d8f34b2686dc3b0a0b1cab590f11561009957604051f35b604051903d90823e3d90fd5b506108fc610078565b80fd5b9050817ffffffffffffffffffffffffffffffffffffffffffffffffffffffffffffffffc360112610119578154341981116100ec5734018255f35b6024837f4e487b710000000000000000000000000000000000000000000000000000000081526011600452fd5b5080fdfea2646970667358221220d92cab94a41141aba3da849ed57b492d729f7728a097ca761457638985e86d1c64736f6c634300080f0033",
    "linkReferences": {},
    "deployedLinkReferences": {}
}