{
    "_format": "hh-sol-artifact-1",
    "contractName": "Staking",
    "sourceName": "contracts/Staking.sol",
    "abi": [
        {
            "inputs": [],
            "name": "returnStake",
            "outputs": [],
            "stateMutability": "nonpayable",
            "type": "function"
        },
        {
            "inputs": [],
            "name": "stake",
            "outputs": [],
            "stateMutability": "payable",
            "type": "function"
        }
    ],
    "bytecode": "0x60806040526000805534801561001457600080fd5b5060f6806100236000396000f3fe60806040526004361060265760003560e01c80633a4b66f114602b5780637ac66574146033575b600080fd5b60316045565b005b348015603e57600080fd5b5060316056565b3460005460519190609b565b600055565b6000805460405173a8458b544c551af2ade164c427a8a4f13a346f2a9282156108fc02929190818181858888f193505050501580156098573d6000803e3d6000fd5b50565b6000821982111560bb57634e487b7160e01b600052601160045260246000fd5b50019056fea2646970667358221220db75df9b11ffc3ef105c754780bbeb06df0f674604ce86ed7c4fbc19a43285c564736f6c634300080c0033",
    "linkReferences": {},
    "deployedLinkReferences": {}
}