{
    "_format": "hh-sol-artifact-1",
    "contractName": "BananaAccount",
    "sourceName": "contracts/BananaAccount.sol",
    "abi": [
        {
            "inputs": [
                {
                    "internalType": "address",
                    "name": "_gateway",
                    "type": "address"
                },
                {
                    "internalType": "address",
                    "name": "_gasReceiver",
                    "type": "address"
                }
            ],
            "stateMutability": "nonpayable",
            "type": "constructor"
        },
        {
            "inputs": [],
            "name": "InvalidAddress",
            "type": "error"
        },
        {
            "inputs": [],
            "name": "NotApprovedByGateway",
            "type": "error"
        },
        {
            "anonymous": false,
            "inputs": [
                {
                    "indexed": false,
                    "internalType": "address",
                    "name": "owner",
                    "type": "address"
                }
            ],
            "name": "AddedOwner",
            "type": "event"
        },
        {
            "anonymous": false,
            "inputs": [
                {
                    "indexed": true,
                    "internalType": "bytes32",
                    "name": "approvedHash",
                    "type": "bytes32"
                },
                {
                    "indexed": true,
                    "internalType": "address",
                    "name": "owner",
                    "type": "address"
                }
            ],
            "name": "ApproveHash",
            "type": "event"
        },
        {
            "anonymous": false,
            "inputs": [
                {
                    "indexed": false,
                    "internalType": "address",
                    "name": "handler",
                    "type": "address"
                }
            ],
            "name": "ChangedFallbackHandler",
            "type": "event"
        },
        {
            "anonymous": false,
            "inputs": [
                {
                    "indexed": false,
                    "internalType": "address",
                    "name": "guard",
                    "type": "address"
                }
            ],
            "name": "ChangedGuard",
            "type": "event"
        },
        {
            "anonymous": false,
            "inputs": [
                {
                    "indexed": false,
                    "internalType": "uint256",
                    "name": "threshold",
                    "type": "uint256"
                }
            ],
            "name": "ChangedThreshold",
            "type": "event"
        },
        {
            "anonymous": false,
            "inputs": [
                {
                    "indexed": false,
                    "internalType": "address",
                    "name": "module",
                    "type": "address"
                }
            ],
            "name": "DisabledModule",
            "type": "event"
        },
        {
            "anonymous": false,
            "inputs": [
                {
                    "indexed": false,
                    "internalType": "address",
                    "name": "module",
                    "type": "address"
                }
            ],
            "name": "EnabledModule",
            "type": "event"
        },
        {
            "anonymous": false,
            "inputs": [
                {
                    "indexed": false,
                    "internalType": "bytes32",
                    "name": "txHash",
                    "type": "bytes32"
                },
                {
                    "indexed": false,
                    "internalType": "uint256",
                    "name": "payment",
                    "type": "uint256"
                }
            ],
            "name": "ExecutionFailure",
            "type": "event"
        },
        {
            "anonymous": false,
            "inputs": [
                {
                    "indexed": true,
                    "internalType": "address",
                    "name": "module",
                    "type": "address"
                }
            ],
            "name": "ExecutionFromModuleFailure",
            "type": "event"
        },
        {
            "anonymous": false,
            "inputs": [
                {
                    "indexed": true,
                    "internalType": "address",
                    "name": "module",
                    "type": "address"
                }
            ],
            "name": "ExecutionFromModuleSuccess",
            "type": "event"
        },
        {
            "anonymous": false,
            "inputs": [
                {
                    "indexed": false,
                    "internalType": "bytes32",
                    "name": "txHash",
                    "type": "bytes32"
                },
                {
                    "indexed": false,
                    "internalType": "uint256",
                    "name": "payment",
                    "type": "uint256"
                }
            ],
            "name": "ExecutionSuccess",
            "type": "event"
        },
        {
            "anonymous": false,
            "inputs": [
                {
                    "indexed": false,
                    "internalType": "address",
                    "name": "owner",
                    "type": "address"
                }
            ],
            "name": "RemovedOwner",
            "type": "event"
        },
        {
            "anonymous": false,
            "inputs": [
                {
                    "indexed": true,
                    "internalType": "address",
                    "name": "sender",
                    "type": "address"
                },
                {
                    "indexed": false,
                    "internalType": "uint256",
                    "name": "value",
                    "type": "uint256"
                }
            ],
            "name": "SafeReceived",
            "type": "event"
        },
        {
            "anonymous": false,
            "inputs": [
                {
                    "indexed": true,
                    "internalType": "address",
                    "name": "initiator",
                    "type": "address"
                },
                {
                    "indexed": false,
                    "internalType": "address[]",
                    "name": "owners",
                    "type": "address[]"
                },
                {
                    "indexed": false,
                    "internalType": "uint256",
                    "name": "threshold",
                    "type": "uint256"
                },
                {
                    "indexed": false,
                    "internalType": "address",
                    "name": "initializer",
                    "type": "address"
                },
                {
                    "indexed": false,
                    "internalType": "address",
                    "name": "fallbackHandler",
                    "type": "address"
                }
            ],
            "name": "SafeSetup",
            "type": "event"
        },
        {
            "anonymous": false,
            "inputs": [
                {
                    "indexed": true,
                    "internalType": "bytes32",
                    "name": "msgHash",
                    "type": "bytes32"
                }
            ],
            "name": "SignMsg",
            "type": "event"
        },
        {
            "anonymous": false,
            "inputs": [
                {
                    "indexed": false,
                    "internalType": "string",
                    "name": "tokenSymbol",
                    "type": "string"
                },
                {
                    "indexed": false,
                    "internalType": "string",
                    "name": "sourceAddress",
                    "type": "string"
                },
                {
                    "indexed": false,
                    "internalType": "uint256",
                    "name": "amount",
                    "type": "uint256"
                },
                {
                    "indexed": false,
                    "internalType": "string",
                    "name": "sourceChain",
                    "type": "string"
                }
            ],
            "name": "TokenReceivedEvent",
            "type": "event"
        },
        {
            "stateMutability": "nonpayable",
            "type": "fallback"
        },
        {
            "inputs": [],
            "name": "VERSION",
            "outputs": [
                {
                    "internalType": "string",
                    "name": "",
                    "type": "string"
                }
            ],
            "stateMutability": "view",
            "type": "function"
        },
        {
            "inputs": [
                {
                    "internalType": "address",
                    "name": "owner",
                    "type": "address"
                },
                {
                    "internalType": "uint256",
                    "name": "_threshold",
                    "type": "uint256"
                }
            ],
            "name": "addOwnerWithThreshold",
            "outputs": [],
            "stateMutability": "nonpayable",
            "type": "function"
        },
        {
            "inputs": [
                {
                    "internalType": "bytes32",
                    "name": "hashToApprove",
                    "type": "bytes32"
                }
            ],
            "name": "approveHash",
            "outputs": [],
            "stateMutability": "nonpayable",
            "type": "function"
        },
        {
            "inputs": [
                {
                    "internalType": "address",
                    "name": "",
                    "type": "address"
                },
                {
                    "internalType": "bytes32",
                    "name": "",
                    "type": "bytes32"
                }
            ],
            "name": "approvedHashes",
            "outputs": [
                {
                    "internalType": "uint256",
                    "name": "",
                    "type": "uint256"
                }
            ],
            "stateMutability": "view",
            "type": "function"
        },
        {
            "inputs": [
                {
                    "internalType": "uint256",
                    "name": "_threshold",
                    "type": "uint256"
                }
            ],
            "name": "changeThreshold",
            "outputs": [],
            "stateMutability": "nonpayable",
            "type": "function"
        },
        {
            "inputs": [
                {
                    "internalType": "bytes32",
                    "name": "dataHash",
                    "type": "bytes32"
                },
                {
                    "internalType": "bytes",
                    "name": "data",
                    "type": "bytes"
                },
                {
                    "internalType": "bytes",
                    "name": "signatures",
                    "type": "bytes"
                },
                {
                    "internalType": "uint256",
                    "name": "requiredSignatures",
                    "type": "uint256"
                }
            ],
            "name": "checkNSignatures",
            "outputs": [],
            "stateMutability": "view",
            "type": "function"
        },
        {
            "inputs": [
                {
                    "internalType": "bytes32",
                    "name": "dataHash",
                    "type": "bytes32"
                },
                {
                    "internalType": "bytes",
                    "name": "data",
                    "type": "bytes"
                },
                {
                    "internalType": "bytes",
                    "name": "signatures",
                    "type": "bytes"
                }
            ],
            "name": "checkSignatures",
            "outputs": [],
            "stateMutability": "view",
            "type": "function"
        },
        {
            "inputs": [
                {
                    "internalType": "string",
                    "name": "symbol",
                    "type": "string"
                },
                {
                    "internalType": "string",
                    "name": "destinationChain",
                    "type": "string"
                },
                {
                    "internalType": "string",
                    "name": "contractAddress",
                    "type": "string"
                },
                {
                    "internalType": "uint256",
                    "name": "amount",
                    "type": "uint256"
                },
                {
                    "internalType": "bytes",
                    "name": "payload",
                    "type": "bytes"
                }
            ],
            "name": "crossChainTransact",
            "outputs": [],
            "stateMutability": "payable",
            "type": "function"
        },
        {
            "inputs": [
                {
                    "internalType": "address",
                    "name": "prevModule",
                    "type": "address"
                },
                {
                    "internalType": "address",
                    "name": "module",
                    "type": "address"
                }
            ],
            "name": "disableModule",
            "outputs": [],
            "stateMutability": "nonpayable",
            "type": "function"
        },
        {
            "inputs": [],
            "name": "domainSeparator",
            "outputs": [
                {
                    "internalType": "bytes32",
                    "name": "",
                    "type": "bytes32"
                }
            ],
            "stateMutability": "view",
            "type": "function"
        },
        {
            "inputs": [
                {
                    "internalType": "address",
                    "name": "module",
                    "type": "address"
                }
            ],
            "name": "enableModule",
            "outputs": [],
            "stateMutability": "nonpayable",
            "type": "function"
        },
        {
            "inputs": [
                {
                    "internalType": "address",
                    "name": "to",
                    "type": "address"
                },
                {
                    "internalType": "uint256",
                    "name": "value",
                    "type": "uint256"
                },
                {
                    "internalType": "bytes",
                    "name": "data",
                    "type": "bytes"
                },
                {
                    "internalType": "enum Enum.Operation",
                    "name": "operation",
                    "type": "uint8"
                },
                {
                    "internalType": "uint256",
                    "name": "safeTxGas",
                    "type": "uint256"
                },
                {
                    "internalType": "uint256",
                    "name": "baseGas",
                    "type": "uint256"
                },
                {
                    "internalType": "uint256",
                    "name": "gasPrice",
                    "type": "uint256"
                },
                {
                    "internalType": "address",
                    "name": "gasToken",
                    "type": "address"
                },
                {
                    "internalType": "address",
                    "name": "refundReceiver",
                    "type": "address"
                },
                {
                    "internalType": "uint256",
                    "name": "_nonce",
                    "type": "uint256"
                }
            ],
            "name": "encodeTransactionData",
            "outputs": [
                {
                    "internalType": "bytes",
                    "name": "",
                    "type": "bytes"
                }
            ],
            "stateMutability": "view",
            "type": "function"
        },
        {
            "inputs": [
                {
                    "internalType": "bytes32",
                    "name": "",
                    "type": "bytes32"
                },
                {
                    "internalType": "uint256",
                    "name": "",
                    "type": "uint256"
                }
            ],
            "name": "encodedIdHashToQValues",
            "outputs": [
                {
                    "internalType": "uint256",
                    "name": "",
                    "type": "uint256"
                }
            ],
            "stateMutability": "view",
            "type": "function"
        },
        {
            "inputs": [],
            "name": "entryPoint",
            "outputs": [
                {
                    "internalType": "address",
                    "name": "",
                    "type": "address"
                }
            ],
            "stateMutability": "view",
            "type": "function"
        },
        {
            "inputs": [
                {
                    "internalType": "address[]",
                    "name": "to",
                    "type": "address[]"
                },
                {
                    "internalType": "uint256[]",
                    "name": "value",
                    "type": "uint256[]"
                },
                {
                    "internalType": "bytes[]",
                    "name": "data",
                    "type": "bytes[]"
                },
                {
                    "internalType": "enum Enum.Operation",
                    "name": "operation",
                    "type": "uint8"
                }
            ],
            "name": "execBatchTransactionFromEntrypoint",
            "outputs": [],
            "stateMutability": "nonpayable",
            "type": "function"
        },
        {
            "inputs": [
                {
                    "internalType": "address",
                    "name": "to",
                    "type": "address"
                },
                {
                    "internalType": "uint256",
                    "name": "value",
                    "type": "uint256"
                },
                {
                    "internalType": "bytes",
                    "name": "data",
                    "type": "bytes"
                },
                {
                    "internalType": "enum Enum.Operation",
                    "name": "operation",
                    "type": "uint8"
                },
                {
                    "internalType": "uint256",
                    "name": "safeTxGas",
                    "type": "uint256"
                },
                {
                    "internalType": "uint256",
                    "name": "baseGas",
                    "type": "uint256"
                },
                {
                    "internalType": "uint256",
                    "name": "gasPrice",
                    "type": "uint256"
                },
                {
                    "internalType": "address",
                    "name": "gasToken",
                    "type": "address"
                },
                {
                    "internalType": "address payable",
                    "name": "refundReceiver",
                    "type": "address"
                },
                {
                    "internalType": "bytes",
                    "name": "signatures",
                    "type": "bytes"
                }
            ],
            "name": "execTransaction",
            "outputs": [
                {
                    "internalType": "bool",
                    "name": "success",
                    "type": "bool"
                }
            ],
            "stateMutability": "payable",
            "type": "function"
        },
        {
            "inputs": [
                {
                    "internalType": "address",
                    "name": "to",
                    "type": "address"
                },
                {
                    "internalType": "uint256",
                    "name": "value",
                    "type": "uint256"
                },
                {
                    "internalType": "bytes",
                    "name": "data",
                    "type": "bytes"
                },
                {
                    "internalType": "enum Enum.Operation",
                    "name": "operation",
                    "type": "uint8"
                }
            ],
            "name": "execTransactionFromEntrypoint",
            "outputs": [],
            "stateMutability": "nonpayable",
            "type": "function"
        },
        {
            "inputs": [
                {
                    "internalType": "address",
                    "name": "to",
                    "type": "address"
                },
                {
                    "internalType": "uint256",
                    "name": "value",
                    "type": "uint256"
                },
                {
                    "internalType": "bytes",
                    "name": "data",
                    "type": "bytes"
                },
                {
                    "internalType": "enum Enum.Operation",
                    "name": "operation",
                    "type": "uint8"
                }
            ],
            "name": "execTransactionFromModule",
            "outputs": [
                {
                    "internalType": "bool",
                    "name": "success",
                    "type": "bool"
                }
            ],
            "stateMutability": "nonpayable",
            "type": "function"
        },
        {
            "inputs": [
                {
                    "internalType": "address",
                    "name": "to",
                    "type": "address"
                },
                {
                    "internalType": "uint256",
                    "name": "value",
                    "type": "uint256"
                },
                {
                    "internalType": "bytes",
                    "name": "data",
                    "type": "bytes"
                },
                {
                    "internalType": "enum Enum.Operation",
                    "name": "operation",
                    "type": "uint8"
                }
            ],
            "name": "execTransactionFromModuleReturnData",
            "outputs": [
                {
                    "internalType": "bool",
                    "name": "success",
                    "type": "bool"
                },
                {
                    "internalType": "bytes",
                    "name": "returnData",
                    "type": "bytes"
                }
            ],
            "stateMutability": "nonpayable",
            "type": "function"
        },
        {
            "inputs": [
                {
                    "internalType": "bytes32",
                    "name": "commandId",
                    "type": "bytes32"
                },
                {
                    "internalType": "string",
                    "name": "sourceChain",
                    "type": "string"
                },
                {
                    "internalType": "string",
                    "name": "sourceAddress",
                    "type": "string"
                },
                {
                    "internalType": "bytes",
                    "name": "payload",
                    "type": "bytes"
                }
            ],
            "name": "execute",
            "outputs": [],
            "stateMutability": "nonpayable",
            "type": "function"
        },
        {
            "inputs": [
                {
                    "internalType": "bytes32",
                    "name": "commandId",
                    "type": "bytes32"
                },
                {
                    "internalType": "string",
                    "name": "sourceChain",
                    "type": "string"
                },
                {
                    "internalType": "string",
                    "name": "sourceAddress",
                    "type": "string"
                },
                {
                    "internalType": "bytes",
                    "name": "payload",
                    "type": "bytes"
                },
                {
                    "internalType": "string",
                    "name": "tokenSymbol",
                    "type": "string"
                },
                {
                    "internalType": "uint256",
                    "name": "amount",
                    "type": "uint256"
                }
            ],
            "name": "executeWithToken",
            "outputs": [],
            "stateMutability": "nonpayable",
            "type": "function"
        },
        {
            "inputs": [],
            "name": "gateway",
            "outputs": [
                {
                    "internalType": "contract IAxelarGateway",
                    "name": "",
                    "type": "address"
                }
            ],
            "stateMutability": "view",
            "type": "function"
        },
        {
            "inputs": [],
            "name": "getChainId",
            "outputs": [
                {
                    "internalType": "uint256",
                    "name": "",
                    "type": "uint256"
                }
            ],
            "stateMutability": "view",
            "type": "function"
        },
        {
            "inputs": [
                {
                    "internalType": "address",
                    "name": "start",
                    "type": "address"
                },
                {
                    "internalType": "uint256",
                    "name": "pageSize",
                    "type": "uint256"
                }
            ],
            "name": "getModulesPaginated",
            "outputs": [
                {
                    "internalType": "address[]",
                    "name": "array",
                    "type": "address[]"
                },
                {
                    "internalType": "address",
                    "name": "next",
                    "type": "address"
                }
            ],
            "stateMutability": "view",
            "type": "function"
        },
        {
            "inputs": [],
            "name": "getOwners",
            "outputs": [
                {
                    "internalType": "address[]",
                    "name": "",
                    "type": "address[]"
                }
            ],
            "stateMutability": "view",
            "type": "function"
        },
        {
            "inputs": [
                {
                    "internalType": "uint256",
                    "name": "offset",
                    "type": "uint256"
                },
                {
                    "internalType": "uint256",
                    "name": "length",
                    "type": "uint256"
                }
            ],
            "name": "getStorageAt",
            "outputs": [
                {
                    "internalType": "bytes",
                    "name": "",
                    "type": "bytes"
                }
            ],
            "stateMutability": "view",
            "type": "function"
        },
        {
            "inputs": [],
            "name": "getThreshold",
            "outputs": [
                {
                    "internalType": "uint256",
                    "name": "",
                    "type": "uint256"
                }
            ],
            "stateMutability": "view",
            "type": "function"
        },
        {
            "inputs": [
                {
                    "internalType": "address",
                    "name": "to",
                    "type": "address"
                },
                {
                    "internalType": "uint256",
                    "name": "value",
                    "type": "uint256"
                },
                {
                    "internalType": "bytes",
                    "name": "data",
                    "type": "bytes"
                },
                {
                    "internalType": "enum Enum.Operation",
                    "name": "operation",
                    "type": "uint8"
                },
                {
                    "internalType": "uint256",
                    "name": "safeTxGas",
                    "type": "uint256"
                },
                {
                    "internalType": "uint256",
                    "name": "baseGas",
                    "type": "uint256"
                },
                {
                    "internalType": "uint256",
                    "name": "gasPrice",
                    "type": "uint256"
                },
                {
                    "internalType": "address",
                    "name": "gasToken",
                    "type": "address"
                },
                {
                    "internalType": "address",
                    "name": "refundReceiver",
                    "type": "address"
                },
                {
                    "internalType": "uint256",
                    "name": "_nonce",
                    "type": "uint256"
                }
            ],
            "name": "getTransactionHash",
            "outputs": [
                {
                    "internalType": "bytes32",
                    "name": "",
                    "type": "bytes32"
                }
            ],
            "stateMutability": "view",
            "type": "function"
        },
        {
            "inputs": [
                {
                    "internalType": "address",
                    "name": "module",
                    "type": "address"
                }
            ],
            "name": "isModuleEnabled",
            "outputs": [
                {
                    "internalType": "bool",
                    "name": "",
                    "type": "bool"
                }
            ],
            "stateMutability": "view",
            "type": "function"
        },
        {
            "inputs": [
                {
                    "internalType": "address",
                    "name": "owner",
                    "type": "address"
                }
            ],
            "name": "isOwner",
            "outputs": [
                {
                    "internalType": "bool",
                    "name": "",
                    "type": "bool"
                }
            ],
            "stateMutability": "view",
            "type": "function"
        },
        {
            "inputs": [],
            "name": "nonce",
            "outputs": [
                {
                    "internalType": "uint256",
                    "name": "",
                    "type": "uint256"
                }
            ],
            "stateMutability": "view",
            "type": "function"
        },
        {
            "inputs": [
                {
                    "internalType": "address",
                    "name": "prevOwner",
                    "type": "address"
                },
                {
                    "internalType": "address",
                    "name": "owner",
                    "type": "address"
                },
                {
                    "internalType": "uint256",
                    "name": "_threshold",
                    "type": "uint256"
                }
            ],
            "name": "removeOwner",
            "outputs": [],
            "stateMutability": "nonpayable",
            "type": "function"
        },
        {
            "inputs": [
                {
                    "internalType": "address",
                    "name": "handler",
                    "type": "address"
                }
            ],
            "name": "setFallbackHandler",
            "outputs": [],
            "stateMutability": "nonpayable",
            "type": "function"
        },
        {
            "inputs": [
                {
                    "internalType": "address",
                    "name": "guard",
                    "type": "address"
                }
            ],
            "name": "setGuard",
            "outputs": [],
            "stateMutability": "nonpayable",
            "type": "function"
        },
        {
            "inputs": [
                {
                    "internalType": "address[]",
                    "name": "_owners",
                    "type": "address[]"
                },
                {
                    "internalType": "uint256",
                    "name": "_threshold",
                    "type": "uint256"
                },
                {
                    "internalType": "address",
                    "name": "to",
                    "type": "address"
                },
                {
                    "internalType": "bytes",
                    "name": "data",
                    "type": "bytes"
                },
                {
                    "internalType": "address",
                    "name": "fallbackHandler",
                    "type": "address"
                },
                {
                    "internalType": "address",
                    "name": "paymentToken",
                    "type": "address"
                },
                {
                    "internalType": "uint256",
                    "name": "payment",
                    "type": "uint256"
                },
                {
                    "internalType": "address payable",
                    "name": "paymentReceiver",
                    "type": "address"
                }
            ],
            "name": "setup",
            "outputs": [],
            "stateMutability": "nonpayable",
            "type": "function"
        },
        {
            "inputs": [
                {
                    "internalType": "address[]",
                    "name": "_owners",
                    "type": "address[]"
                },
                {
                    "internalType": "uint256",
                    "name": "_threshold",
                    "type": "uint256"
                },
                {
                    "internalType": "address",
                    "name": "to",
                    "type": "address"
                },
                {
                    "internalType": "bytes",
                    "name": "data",
                    "type": "bytes"
                },
                {
                    "internalType": "address",
                    "name": "fallbackHandler",
                    "type": "address"
                },
                {
                    "internalType": "address",
                    "name": "paymentToken",
                    "type": "address"
                },
                {
                    "internalType": "uint256",
                    "name": "payment",
                    "type": "uint256"
                },
                {
                    "internalType": "address payable",
                    "name": "paymentReceiver",
                    "type": "address"
                },
                {
                    "internalType": "address",
                    "name": "_entryPoint",
                    "type": "address"
                },
                {
                    "internalType": "bytes32",
                    "name": "_encodedIdHash",
                    "type": "bytes32"
                },
                {
                    "internalType": "uint256[2]",
                    "name": "_qValues",
                    "type": "uint256[2]"
                }
            ],
            "name": "setupWithEntrypoint",
            "outputs": [],
            "stateMutability": "nonpayable",
            "type": "function"
        },
        {
            "inputs": [
                {
                    "internalType": "bytes32",
                    "name": "",
                    "type": "bytes32"
                }
            ],
            "name": "signedMessages",
            "outputs": [
                {
                    "internalType": "uint256",
                    "name": "",
                    "type": "uint256"
                }
            ],
            "stateMutability": "view",
            "type": "function"
        },
        {
            "inputs": [
                {
                    "internalType": "address",
                    "name": "targetContract",
                    "type": "address"
                },
                {
                    "internalType": "bytes",
                    "name": "calldataPayload",
                    "type": "bytes"
                }
            ],
            "name": "simulateAndRevert",
            "outputs": [],
            "stateMutability": "nonpayable",
            "type": "function"
        },
        {
            "inputs": [
                {
                    "internalType": "address",
                    "name": "prevOwner",
                    "type": "address"
                },
                {
                    "internalType": "address",
                    "name": "oldOwner",
                    "type": "address"
                },
                {
                    "internalType": "address",
                    "name": "newOwner",
                    "type": "address"
                }
            ],
            "name": "swapOwner",
            "outputs": [],
            "stateMutability": "nonpayable",
            "type": "function"
        },
        {
            "inputs": [
                {
                    "components": [
                        {
                            "internalType": "address",
                            "name": "sender",
                            "type": "address"
                        },
                        {
                            "internalType": "uint256",
                            "name": "nonce",
                            "type": "uint256"
                        },
                        {
                            "internalType": "bytes",
                            "name": "initCode",
                            "type": "bytes"
                        },
                        {
                            "internalType": "bytes",
                            "name": "callData",
                            "type": "bytes"
                        },
                        {
                            "internalType": "uint256",
                            "name": "callGasLimit",
                            "type": "uint256"
                        },
                        {
                            "internalType": "uint256",
                            "name": "verificationGasLimit",
                            "type": "uint256"
                        },
                        {
                            "internalType": "uint256",
                            "name": "preVerificationGas",
                            "type": "uint256"
                        },
                        {
                            "internalType": "uint256",
                            "name": "maxFeePerGas",
                            "type": "uint256"
                        },
                        {
                            "internalType": "uint256",
                            "name": "maxPriorityFeePerGas",
                            "type": "uint256"
                        },
                        {
                            "internalType": "bytes",
                            "name": "paymasterAndData",
                            "type": "bytes"
                        },
                        {
                            "internalType": "bytes",
                            "name": "signature",
                            "type": "bytes"
                        }
                    ],
                    "internalType": "struct UserOperation",
                    "name": "userOp",
                    "type": "tuple"
                },
                {
                    "internalType": "bytes32",
                    "name": "userOpHash",
                    "type": "bytes32"
                },
                {
                    "internalType": "uint256",
                    "name": "missingAccountFunds",
                    "type": "uint256"
                }
            ],
            "name": "validateUserOp",
            "outputs": [
                {
                    "internalType": "uint256",
                    "name": "validationData",
                    "type": "uint256"
                }
            ],
            "stateMutability": "nonpayable",
            "type": "function"
        },
        {
            "inputs": [
                {
                    "internalType": "bytes32",
                    "name": "messageToBeSigned",
                    "type": "bytes32"
                },
                {
                    "internalType": "uint256[2]",
                    "name": "signature",
                    "type": "uint256[2]"
                },
                {
                    "internalType": "uint256[2]",
                    "name": "publicKey",
                    "type": "uint256[2]"
                }
            ],
            "name": "verifySignature",
            "outputs": [
                {
                    "internalType": "bool",
                    "name": "",
                    "type": "bool"
                }
            ],
            "stateMutability": "view",
            "type": "function"
        },
        {
            "stateMutability": "payable",
            "type": "receive"
        }
    ],
    "bytecode": "0x60c034620000c157601f62004ca038819003918201601f19168301916001600160401b03831184841017620000c6578084926040948552833981010312620000c1576200005a60206200005283620000dc565b9201620000dc565b60016004556001600160a01b039182168015620000af576080521660a052604051614bae9081620000f282396080518181816108a301528181610cde01528181611e5c0152612605015260a051816126a80152f35b60405163e6c4247b60e01b8152600490fd5b600080fd5b634e487b7160e01b600052604160045260246000fd5b51906001600160a01b0382168203620000c15756fe60806040526004361015610030575b361561002857346100235761002161379a565b005b600080fd5b610021613d94565b60003560e01c8063041a3720146103645780630a7d93d81461035b5780630d582f1314610352578063116191b61461034957806312fb68e0146103405780631a98b2e0146103375780632694bd1d1461032e5780632d9ad53d146103255780632f54bf6e1461031c5780633408e470146103135780633a871cdd1461030a578063468721a71461030157806349160658146102f85780635229073f146102ef5780635624b25b146102e65780635ae6bd37146102dd578063610b5925146102d4578063694e80c3146102cb5780636a761202146102c25780637045908c146102b95780637d832974146102b05780638ab7495b146102a7578063934f3a111461029e578063a0e67e2b14610295578063affed0e01461028c578063b0d691fe14610283578063b4faba091461027a578063b63e800d14610271578063cc2f845214610268578063d4d9bdcd1461025f578063d8d11f7814610256578063d93695ab1461024d578063e009cfde14610244578063e19a9dd91461023b578063e318b52b14610232578063e75235b814610229578063e86637db14610220578063f08a032314610217578063f698da251461020e578063f8dc5dd9146102055763ffa1ad740361000e57610200611d48565b61000e565b50610200611c88565b50610200611c64565b50610200611bf6565b50610200611bcd565b50610200611bae565b50610200611a6d565b50610200611963565b5061020061182f565b506102006117f3565b506102006117a8565b50610200611670565b5061020061150e565b5061020061145c565b506102006113fc565b506102006113d2565b506102006113b3565b50610200611320565b5061020061128d565b506102006111ad565b5061020061113b565b506102006110be565b5061020061101c565b50610200610fb4565b50610200610ec2565b50610200610e95565b50610200610e1d565b50610200610dc4565b50610200610c19565b50610200610bfc565b50610200610af1565b50610200610ad5565b50610200610a77565b50610200610a45565b50610200610a15565b5061020061092b565b506102006108d2565b5061020061088c565b5061020061070c565b50610200610689565b5061020061056d565b9181601f84011215610023578235916001600160401b038311610023576020808501948460051b01011161002357565b6001600160a01b0381160361002357565b608435906103bb8261039d565b565b60a435906103bb8261039d565b61010435906103bb8261039d565b60e435906103bb8261039d565b9181601f84011215610023578235916001600160401b038311610023576020838186019501011161002357565b50634e487b7160e01b600052604160045260246000fd5b6001600160401b03811161043c57604052565b610444610412565b604052565b606081019081106001600160401b0382111761043c57604052565b604081019081106001600160401b0382111761043c57604052565b608081019081106001600160401b0382111761043c57604052565b61018081019081106001600160401b0382111761043c57604052565b90601f801991011681019081106001600160401b0382111761043c57604052565b604051906103bb82610449565b604051906103bb82610464565b90604051916104ff83610464565b8260a4918211610023576064905b82821061051957505050565b813581526020918201910161050d565b806101631215610023576040519061054082610464565b8161018491821161002357610144905b82821061055d5750505090565b8135815260209182019101610550565b503461002357610180366003190112610023576001600160401b03600435818111610023576105a090369060040161036d565b90604435916105ae8361039d565b606435938411610023576105c96100219436906004016103e5565b90916105d36103ae565b6105db6103bd565b906105e46103d8565b936105ed6103ca565b956105f736610529565b98610124359860c435966024359161202c565b6020906001600160401b038111610627575b601f01601f19160190565b61062f610412565b61061c565b9291926106408261060a565b9161064e60405193846104b6565b829481845281830111610023578281602093846000960137010152565b9080601f830112156100235781602061068693359101610634565b90565b5060a0366003190112610023576001600160401b03600435818111610023576106b690369060040161066b565b602435828111610023576106ce90369060040161066b565b90604435838111610023576106e790369060040161066b565b6084359384116100235761070261002194369060040161066b565b92606435926125e8565b50346100235760403660031901126100235760043561072a8161039d565b7f9465fa0c962cc76958e6373a993326400c1c94f8be2fe3a952adfa7f60b2ea266108536024359261075a613dc2565b61077d6001600160a01b0382168015159081610875575b8161086a575b50613bb3565b6107ae6107a861079c61078f84611121565b546001600160a01b031690565b6001600160a01b031690565b15613be7565b600160005260026020526107f26107e47fe90b7bceb6e7df5418fb78d8ee546e97c83a08bbccc01a0644d599ccd2a7c2e061078f565b6107ed83611121565b611ee2565b60016000526002602052610826817fe90b7bceb6e7df5418fb78d8ee546e97c83a08bbccc01a0644d599ccd2a7c2e0611ee2565b61083961083460035461239d565b600355565b6040516001600160a01b0390911681529081906020820190565b0390a1806004540361086157005b61002190613d40565b905030141538610777565b60018114159150610771565b600091031261002357565b5034610023576000366003190112610023576040517f00000000000000000000000000000000000000000000000000000000000000006001600160a01b03168152602090f35b5034610023576080366003190112610023576001600160401b036024358181116100235761090490369060040161066b565b6044359182116100235761091f61002192369060040161066b565b606435916004356132ff565b50346100235760c0366003190112610023576001600160401b036024358181116100235761095d9036906004016103e5565b604435838111610023576109759036906004016103e5565b606492919235858111610023576109909036906004016103e5565b91608435968711610023576109ac6100219736906004016103e5565b95909460a43597600435611dd5565b60643590600282101561002357565b6080600319820112610023576004356109e28161039d565b9160243591604435906001600160401b03821161002357610a059160040161066b565b9060643560028110156100235790565b503461002357610021610a27366109ca565b92610a4060018060a09594951b036009541633146120c7565b6128cb565b5034610023576020366003190112610023576020610a6d600435610a688161039d565b613a4a565b6040519015158152f35b5034610023576020366003190112610023576020600435610a978161039d565b6001600160a01b039081166001811415919082610abb575b50506040519015158152f35b909150600052600282526040600020541615153880610aaf565b5034610023576000366003190112610023576020604051468152f35b503461002357600319606036820112610023576004356001600160401b0391828211610023576101609082360301126100235760443591610b3d60018060a01b036009541633146120c7565b6024610b4d813584600401612146565b9201351015610bb75781610b7192610b75575b506040519081529081906020820190565b0390f35b600080809260405190338319f1503d15610bb2573d610b938161060a565b90610ba160405192836104b6565b8152600060203d92013e5b38610b60565b610bac565b60405162461bcd60e51b815260206004820152601c60248201527f6163636f756e743a206e6f6e73657175656e7469616c206e6f6e6365000000006044820152606490fd5b5034610023576020610a6d610c10366109ca565b92919091613985565b50346100235760031960803682011261002357602435906001600160401b0380831161002357610c4e600493369085016103e5565b60443583811161002357610c6590369087016103e5565b9360643590811161002357610cc195602095610c91610c8a610cd09436908c016103e5565b3691610634565b878151910120936040519889978897635f6970c360e01b89528c358d8a0152608060248a01526084890191611da7565b92868403016044870152611da7565b6064830191909152038160007f00000000000000000000000000000000000000000000000000000000000000006001600160a01b03165af1908115610d5d575b600091610d2f575b5015610d2057005b604051631403112d60e21b8152fd5b610d50915060203d8111610d56575b610d4881836104b6565b810190611d8f565b38610d18565b503d610d3e565b610d65611dc8565b610d10565b918091926000905b828210610d8a575011610d83575050565b6000910152565b91508060209183015181860152018291610d72565b90602091610db881518092818552858086019101610d6a565b601f01601f1916010190565b503461002357610dd6610c10366109ca565b6040519060203d8301016040523d82523d6000602084013e610b7160405192839215158352604060208401526040830190610d9f565b906020610686928181520190610d9f565b50346100235760403660031901126100235760043560243560208160001904811182151516610e88575b600590610e5583831b613df8565b9360005b848110610e6e5760405180610b718882610e0c565b80610e83918301548482871b8901015261239d565b610e59565b610e90611f01565b610e47565b50346100235760203660031901126100235760043560005260076020526020604060002054604051908152f35b5034610023576020366003190112610023577fecdf3a3effea5783a3c4c2140e677577666428d44ed9d474a0b3a4c9943f8440610fa4600435610f048161039d565b610f0c613dc2565b610f416001600160a01b0382811680151580610fa9575b610f2c9061391d565b60005260016020526040600020541615613951565b60016000819052602052610f82610f65600080516020614b3983398151915261078f565b6001600160a01b0383166000908152600160205260409020611ee2565b6001600081905260205261083981600080516020614b39833981519152611ee2565b0390a1005b506001811415610f23565b5034610023576020366003190112610023577f610f7ff2b304ae8903c3de74c60c6ab1f7d6226b3f52c5161905bb5ad4039c936020600435610ff4613dc2565b611002600354821115613b4b565b61100f6001821015613b7f565b80600455604051908152a1005b50610140366003190112610023576004356110368161039d565b6001600160401b03604435818111610023576110569036906004016103e5565b9061105f6109bb565b9160e4359061106d8261039d565b6110756103ca565b926101243595861161002357610b71966110966110ac97369060040161066b565b9560c4359360a435936084359360243590612c69565b60405190151581529081906020820190565b50346100235760a0366003190112610023576064368111610023573660a411610023576020906040516110f081610464565b6024815b8382106111125784610a6d84611109366104f1565b90600435614446565b813581529084019084016110f4565b6001600160a01b0316600090815260026020526040902090565b5034610023576040366003190112610023576004356111598161039d565b60018060a01b0316600052600860205260406000206024356000526020526020604060002054604051908152f35b6020906001600160401b0381116111a0575b60051b0190565b6111a8610412565b611199565b5034610023576080366003190112610023576001600160401b03600435818111610023576111df90369060040161036d565b6024908135848111610023576111f990369060040161036d565b9160443586811161002357366023820112156100235780600401359461121e86611187565b9561122c60405197886104b6565b808752602098828a89019260051b8501019336851161002357838101925b858410611267576100218b8b8b8b8b6112616109bb565b946123f9565b8335838111610023578c91611282839288369187010161066b565b81520193019261124a565b5034610023576060366003190112610023576001600160401b03602435818111610023576112bf90369060040161066b565b604435918211610023576112da61002192369060040161066b565b906004356130b9565b90815180825260208080930193019160005b828110611303575050505090565b83516001600160a01b0316855293810193928101926001016112f5565b5034610023576000806003193601126113b05761133e600354613ae5565b9080600191828252600260209281845260018060a01b039160409386848685205416905b611379575b855187815280610b71818a018c6112e3565b84168781146113ab5790818892611390838c6123d7565b5284528287526113a58587862054169161239d565b91611362565b611367565b80fd5b5034610023576000366003190112610023576020600554604051908152f35b5034610023576000366003190112610023576009546040516001600160a01b039091168152602090f35b50346100235760403660031901126100235760043561141a8161039d565b6024356001600160401b0381116100235760009161143d8392369060040161066b565b90602082519201905af46000523d6020523d600060403e60403d016000fd5b503461002357610100366003190112610023576001600160401b036004358181116100235761148f90369060040161036d565b60443561149b8161039d565b606435938411610023576114b66100219436906004016103e5565b608435916114c38361039d565b60a435936114d08561039d565b6114d86103d8565b9660c4359660243591612933565b906114fe6020919493946040845260408401906112e3565b6001600160a01b03909416910152565b50346100235760403660031901126100235760043561152c8161039d565b600190600090826001600160a01b036024358184168314801561165c575b61155390613a7d565b61155e811515613ab1565b61158761078f61156d83613ae5565b969560018060a01b03166000526001602052604060002090565b955b6115d2575b508416036115a8575b8152610b71604051928392836114e6565b91506115cc6115bf6115b984612bc6565b836123d7565b516001600160a01b031690565b91611597565b818695949516838115159182611651575b505080611648575b156116405761163a61163461078f8861161a899a61160b8a9b8a9b6123d7565b6001600160a01b039091169052565b6001600160a01b0316600090815260016020526040902090565b9661239d565b93611589565b93929361158e565b508085106115eb565b1415905083386115e3565b5061155361166985613a4a565b905061154a565b50346100235760203660031901126100235733600090815260026020526040902054600435906001600160a01b031615611702573360009081526008602052604081209091906116d6906116d09083905b90600052602052604060002090565b60019055565b6040519033907ff2a0eb156472d1440255b0d7c1e19cc07115d1051fe605b0dce69acfec884d9c8484a3f35b60405162461bcd60e51b8152602060048201526005602482015264047533033360dc1b6044820152606490fd5b610140600319820112610023576004356117488161039d565b9160243591604435906001600160401b0382116100235761176b916004016103e5565b9091606435600281101561002357906084359060a4359060c4359060e4356117928161039d565b90610104356117a08161039d565b906101243590565b50346100235760206117ce6117bc3661172f565b99989098979197969296959395613645565b818151910120604051908152f35b50634e487b7160e01b600052603260045260246000fd5b503461002357604036600319011261002357602435600435600052600a6020526040600020906002811015610023576020910154604051908152f35b50346100235760403660031901126100235760043561184d8161039d565b6024359061185a8261039d565b611862613dc2565b6001600160a01b038281169081151580611958575b6118809061391d565b8083166000526001602052604060002054160361192b57816118fe610fa4926107ed6118e261078f7faab4fa2b463f581b2b32cb3b7e3b704b9ce37cc209b5fb4d77e593ace40542769760018060a01b03166000526001602052604060002090565b6001600160a01b03909216600090815260016020526040902090565b6001600160a01b0381166000908152600160205260409020610839905b80546001600160a01b0319169055565b60405162461bcd60e51b8152602060048201526005602482015264475331303360d81b6044820152606490fd5b506001821415611877565b5034610023576020366003190112610023577f1151116914515bc0891ff9047a6cb32cf902546f83066499bcf8ba33d2353fa2610fa46004356119a58161039d565b6119ad613dc2565b6001600160a01b038116806119fc575b507f4a204f620c8c5ccdca3fd54d003badd85ba500436a431f0cbda4f558c93c34c88190556040516001600160a01b0390911681529081906020820190565b6040516301ffc9a760e01b815263736bd41d60e11b6004820152611a3c91602090829060249082905afa908115611a60575b600091611a42575b506137da565b386119bd565b611a5a915060203d8111610d5657610d4881836104b6565b38611a36565b611a68611dc8565b611a2e565b5034610023576060366003190112610023577f9465fa0c962cc76958e6373a993326400c1c94f8be2fe3a952adfa7f60b2ea26610fa46107ed7ff8d49fc529812e9a7c5c50e69c20f0dccc0db8fa95c98bc58cc9a4f1c1299eaf611b86600435611ad68161039d565b611b7a60243591611ae68361039d565b604435958691611af58361039d565b611afd613dc2565b611b5d6001600160a01b03611b228582168015159081610875578161086a5750613bb3565b611b346107a861079c61078f88611121565b861680151580611ba3575b611b4890613bb3565b611b5761079c61078f85611121565b14613cff565b611b75611b6c61078f87611121565b6107ed85611121565b611121565b61083961191b82611121565b0390a16040516001600160a01b0390911681529081906020820190565b506001811415611b3f565b5034610023576000366003190112610023576020600454604051908152f35b503461002357610b71611be26117bc3661172f565b604051918291602083526020830190610d9f565b5034610023576020366003190112610023577f5ac6c46c93c8d0e53714ba3b53db3e7c046da994313d7ed0d192028bc7c228b06020600435611c378161039d565b611c3f613dc2565b600080516020614b598339815191528190556040516001600160a01b039091168152a1005b5034610023576000366003190112610023576020611c806135fb565b604051908152f35b503461002357606036600319011261002357600435611ca68161039d565b7ff8d49fc529812e9a7c5c50e69c20f0dccc0db8fa95c98bc58cc9a4f1c1299eaf610853602435611cd68161039d565b611d2e60443594611ce5613dc2565b611cfb86611cf4600354612bc6565b1015613b4b565b611d196001600160a01b03841680151580611ba357611b4890613bb3565b6107ed611d2861078f85611121565b91611121565b611d3a61191b82611121565b610839610834600354613d33565b503461002357600036600319011261002357610b71604051611d6981610464565b60058152640312e342e360dc1b6020820152604051918291602083526020830190610d9f565b90816020910312610023575180151581036100235790565b908060209392818452848401376000828201840152601f01601f1916010190565b506040513d6000823e3d90fd5b611ded611e4f939495966020939b9a99983691610634565b828151910120906040519384928392631876eed960e01b8452600484015260c06024840152611e218d8860c4860191611da7565b611e3960031991828682030160448701528b8b611da7565b9160648501528382030160848401528a8a611da7565b60a482018b9052038160007f00000000000000000000000000000000000000000000000000000000000000006001600160a01b03165af1908115611ed5575b600091611eb7575b5015611ea5576103bb966124ad565b604051631403112d60e21b8152600490fd5b611ecf915060203d8111610d5657610d4881836104b6565b38611e96565b611edd611dc8565b611e8e565b80546001600160a01b0319166001600160a01b03909216919091179055565b50634e487b7160e01b600052601160045260246000fd5b806000190460401181151516611f2f575b60061b90565b611f37611f01565b611f29565b806000190460041181151516611f53575b60021b90565b611f5b611f01565b611f4d565b6007908060001904821181151516611f76570290565b611f7e611f01565b0290565b91908082526020809201929160005b828110611f9f575050505090565b9091929382806001928735611fb38161039d565b848060a01b03168152019501910192919092611f91565b9894939192611fee6120149260e09a959d9c98999d8c6101008091528d0191611f82565b9060208b015260018060a01b039788958680951660408d01528b830360608d0152611da7565b991660808801521660a086015260c085015216910152565b9b9a9091929394959697989960018060a01b031660018060a01b03196009541617600955600052602099600a8b526040600020906000905b600282106120b257505050926120ac9895926103bb9b9a98959261209e98956040519c8d9b63b63e800d60e01b908d015260248c01611fca565b03601f1981018352826104b6565b306127f0565b60018d82829351865501930191019091612064565b156120ce57565b60405162461bcd60e51b815260206004820152601c60248201527f6163636f756e743a206e6f742066726f6d20456e747279506f696e74000000006044820152606490fd5b60405191906000835b60028210612130575050506103bb82610464565b600160208192855481520193019101909161211c565b61014081013590601e1981360301821215610023576001600160401b039291018035838111610023576020918281019180360383136100235781019460c0828588019703126100235760608201358181116100235786856121a99285010161066b565b9060808301358181116100235787866121c49286010161066b565b9260a0810135918211610023576121f961222c9761222695612221956121f36122309c8b60c09888010161066b565b926122e0565b956122026104e4565b953586526040820135908601520135600052600a602052604060002090565b612113565b91614446565b1590565b61223957600090565b600190565b9061225160209282815194859201610d6a565b0190565b6103bb91939293604051948591835161227681602096878088019101610d6a565b830161228a82518093878085019101610d6a565b0161229d82518093868085019101610d6a565b010380855201836104b6565b60406103bb91939293815194816122ca879351809260208087019101610d6a565b82019060208201520360208101855201836104b6565b612371916020600061235d6123518398839861234b6123466123519961231c60018060801b031961231281841661421a565b9260801b1661421a565b6040519161060f60f31b8b84015260228301526042820152604281526123418161047f565b6143a1565b613f3d565b90612255565b6040519182809261223e565b039060025afa15612390575b8351906122a9565b039060025afa15612383575b60005190565b61238b611dc8565b61237d565b612398611dc8565b612369565b60019060001981146123ad570190565b612251611f01565b91908110156123c55760051b0190565b6111a86117dc565b356106868161039d565b60209181518110156123ec575b60051b010190565b6123f46117dc565b6123e4565b93909594929561241460018060a01b036009541633146120c7565b815181036124725760005b818110612430575050505050509050565b806124688661244b61244661246d95878c6123b5565b6123cd565b612456848d8a6123b5565b3561246185896123d7565b51916128cb565b61239d565b61241f565b60405162461bcd60e51b815260206004820152601360248201527277726f6e67206172726179206c656e6774687360681b6044820152606490fd5b6124ff7f5c2ccd596dc7b5bf1b7a39d3a4718027b28cf9ef9cb76ff1b05db0ea60c5aaba9793612512959796976124f1604051998a9960808b5260808b0191611da7565b9188830360208a0152611da7565b9260408601528483036060860152611da7565b0390a1565b9081602091031261002357516106868161039d565b9597969260c095919461256e61257c9261256061258a9660018060a01b03809a168c5260e060208d015260e08c0190610d9f565b908a820360408c0152610d9f565b9088820360608a0152610d9f565b908682036080880152610d9f565b9560a085015216910152565b959493906080936125c76125e3946125b96125d59460a08c5260a08c0190610d9f565b908a820360208c0152610d9f565b9088820360408a0152610d9f565b908682036060880152610d9f565b930152565b6040516349ad89fb60e11b81529094919391926001600160a01b037f0000000000000000000000000000000000000000000000000000000000000000811693919260209061269390829085908281806126448f60048301610e0c565b03818c5afa9081156127e3575b6000916127b6575b5060405163095ea7b360e01b81526001600160a01b038a166004820152602481019290925290928391908290600090889083906044820190565b0393165af180156127a9575b61278b575b50507f000000000000000000000000000000000000000000000000000000000000000016803b15610023576000866126fa92848a60405195869485938493636316100160e11b85528d8c3394306004890161252c565b039134905af1801561277e575b61276b575b50823b1561002357600094612739869260405198899788968795632d505c2160e21b875260048701612596565b03925af1801561275e575b61274b5750565b806127586103bb92610429565b80610881565b612766611dc8565b612744565b8061275861277892610429565b3861270c565b612786611dc8565b612707565b816127a192903d10610d5657610d4881836104b6565b5038806126a4565b6127b1611dc8565b61269f565b6127d69150833d85116127dc575b6127ce81836104b6565b810190612517565b38612659565b503d6127c4565b6127eb611dc8565b612651565b8151600092839283929160200190600019f43d906040519160208184010160405280835283602084013e15612823575050565b60448151106128c7576004810151810190602081602484019303126128bf576024810151906001600160401b0382116128c35701816043820112156128bf576024810151926128718461060a565b9261287f60405194856104b6565b848452604485840101116113b057506128bb926128a3916044602085019101610d6a565b60405162461bcd60e51b815291829160048301610e0c565b0390fd5b8280fd5b8380fd5b5080fd5b906128d7939291613725565b3d906040519060208383010160405282825260009283602084013e15612823575050565b939160609396959161291591608087526080870191611f82565b60208501969096526001600160a01b03918216604085015216910152565b98929497939096919761294588611187565b61295260405191826104b6565b88815260208082018a60051b8d0190368211610023578d905b828210612a1757505050506129c86129e59795938b9a999795936129b37f141df868a6331af528e38c83b7aa03edc19be66e37ae67f9285bf4f8e3c6a1a89d6129ce95613c1b565b6001600160a01b0389166129fc573691610634565b85613842565b826129ea575b5050506040519485943398866128fb565b0390a2565b6129f392612f56565b503880806129d4565b612a1289600080516020614b5983398151915255565b610c8a565b8380918335612a258161039d565b81520191019061296b565b906002821015612a3d5752565b634e487b7160e01b600052602160045260246000fd5b9a9893928b97929a96919598939d9c9d600160a01b600190039b8c998a8099168152602001528c6101606040819201528d0190612a8f92611da7565b9760608c01612a9d91612a30565b60808b015260a08a015260c08901521660e087015216610100850152838103610120850152612acb91610d9f565b9316906101400152565b6109c4906109c41981116123ad570190565b6101f4906101f41981116123ad570190565b60029060021981116123ad570190565b60039060031981116123ad570190565b60019060011981116123ad570190565b60049060041981116123ad570190565b7f0606060606060606060606060606060606060606060606060606060606060606907ff9f9f9f9f9f9f9f9f9f9f9f9f9f9f9f9f9f9f9f9f9f9f9f9f9f9f9f9f9f9f9f981116123ad570190565b811981116123ad570190565b15612b9957565b60405162461bcd60e51b8152602060048201526005602482015264047533031360dc1b6044820152606490fd5b60018110612bd6575b6000190190565b612bde611f01565b612bcf565b6109c48110612bf5575b6109c3190190565b612bfd611f01565b612bed565b80600310612c11575b60030390565b612c19611f01565b612c0b565b818110612c29570390565b612c31611f01565b0390565b15612c3c57565b60405162461bcd60e51b8152602060048201526005602482015264475330313360d81b6044820152606490fd5b838a899583859f9e9d9995968b978f9d9e8b9f839e8a839e600554988997600160a01b60019003809c1697612c9d9a613645565b90612ca79061239d565b600555805160208201209c612cbc918e6130b9565b7f4a204f620c8c5ccdca3fd54d003badd85ba500436a431f0cbda4f558c93c34c85416998a1515998a612e6a575b5090612d5391612d5b93612d2c5a612d25612d20612d11612d0a8b611f18565b603f900490565b612d1a8b612ad5565b90613f0d565b612ae7565b1115612b92565b5a9f612d4d89159c8d600014612e6357612d455a612be3565b953691610634565b9161376a565b9b5a90613ec1565b908b908c15612e59575b508015612e51575b612d7690612c35565b60009515612e3d575b505050505085600014612e06576040805185815260208101929092527f442e715f626346e8c54381002da614f62bee8d27386535b2521ec8540898556e91a15b612dc7575050565b803b1561002357604051631264e26d60e31b8152600481019290925283151560248301526000908290604490829084905af1801561275e5761274b5750565b6040805185815260208101929092527f23428b18acfb3ea64b08dc0c1d296ea9c09702c09083ca5272e64d115b687d2391a1612dbf565b612e479550613049565b3880808080612d7f565b508515612d6d565b9050151538612d65565b8895610c8a565b91908b3b1561002357838f6000848f8e838f958f8f9c8f9c8f99612d5b9f93612d539f94612eb4958f9d6040519e8f9d8e9c8d9b8c9a633af85da960e11b8c526004339c01612a53565b03925af18015612ee1575b612ece575b5093509091612cea565b80612758612edb92610429565b38612ec4565b612ee9611dc8565b612ebf565b15612ef557565b60405162461bcd60e51b815260206004820152600560248201526423a998189960d91b6044820152606490fd5b15612f2957565b60405162461bcd60e51b8152602060048201526005602482015264475330313160d81b6044820152606490fd5b9092916001600160a01b039190828116613043575032935b808316612fba5750600080806103bb94612f9582953a6001108414612fb357600190613e89565b97889183918315612fa9575b1690f1612f22565b6108fc9250612fa1565b3a90613e89565b60209294612fca61300693613e59565b60405163a9059cbb60e01b868201908152979092166001600160a01b03166024830152604482018190529560009390918491816064810161209e565b519261270f195a01f13d80156130395760201461302857506103bb6000612eee565b6103bb906000511590151715612eee565b506103bb90612eee565b93612f6e565b9294936001600160a01b0393908481166130b3575032955b808516613098575060006103bb94612f95829561308084968596613ef8565b903a811085146130905790613e89565b503a90613e89565b91613006936130ae612fca926020979994613ef8565b613e89565b95613061565b916004549182156130cd576103bb936132ff565b60405162461bcd60e51b8152602060048201526005602482015264475330303160d81b6044820152606490fd5b1561310157565b60405162461bcd60e51b8152602060048201526005602482015264047533032360dc1b6044820152606490fd5b60ff1660048110613141575b6003190190565b613149611f01565b61313a565b1561315557565b60405162461bcd60e51b8152602060048201526005602482015264475330323560d81b6044820152606490fd5b1561318957565b60405162461bcd60e51b8152602060048201526005602482015264475330323760d81b6044820152606490fd5b156131bd57565b60405162461bcd60e51b8152602060048201526005602482015264475330323160d81b6044820152606490fd5b156131f157565b60405162461bcd60e51b815260206004820152600560248201526423a998191960d91b6044820152606490fd5b1561322557565b60405162461bcd60e51b8152602060048201526005602482015264475330323360d81b6044820152606490fd5b9081602091031261002357516001600160e01b0319811681036100235790565b909161328961068693604084526040840190610d9f565b916020818403910152610d9f565b1561329e57565b60405162461bcd60e51b815260206004820152600560248201526411d4cc0c8d60da1b6044820152606490fd5b156132d257565b60405162461bcd60e51b815260206004820152600560248201526423a998191b60d91b6044820152606490fd5b90929192613318845161331185613e20565b11156130fa565b600091825b84841061332c57505050505050565b8461344c918484896133548982906041020160208101519060ff604160408301519201511692565b9092909160ff8116806134b1575050849261342194926133de6133fa936133a761339f6134469b9a51956133906020998a98898d012014613182565b6001600160a01b03169c613e20565b8410156131b6565b6133bc6133b384613ed3565b825110156131ea565b6133d58484830101936133d0855191613ed3565b613ef8565b9051101561321e565b604051809381926320c13b0b60e01b9788845260048401613272565b03818a5afa9182156134a4575b600092613477575b50506001600160e01b03191614613297565b6001600160a01b03908116838216908111918261345e575b5081613452575b506132cb565b9361239d565b9261331d565b60019150141538613440565b90915061346d61078f85611121565b1615159038613439565b6134969250803d1061349d575b61348e81836104b6565b810190613252565b388061340f565b503d613484565b6134ac611dc8565b613407565b94509596505090925060019182811460001461351f575050506001600160a01b031691613446915033831480156134f1575b6134ec9061314e565b613421565b506134ec613515866116c18660018060a01b03166000526008602052604060002090565b54151590506134e3565b601e10156135ca57600092936135a460409283519661357f8b6020996135768161209e8d82019485603c917f19457468657265756d205369676e6564204d6573736167653a0a3332000000008252601c8201520190565b5190209461312e565b9451948594859094939260ff6060936080840197845216602083015260408201520152565b84805203915afa156135bd575b61344660005191613421565b6135c5611dc8565b6135b1565b916020936135a46000946040519384938b859094939260ff6060936080840197845216602083015260408201520152565b60405160208101907f47e79534a245952e8b16893a336b85a3d9ea9fa8c573f3d803afb92a7946921882524660408201523060608201526060815261363f8161047f565b51902090565b94909895917fbb8310d486368db6bd6f849402fdd73ad53d316b5a4b2644ad6efe0f941286d89a98946136806136b59260409a963691610634565b6020815191012089519b60208d019d8e528c60018060a01b039b8c809b1691015260608d015260808c015260a08b0190612a30565b60c089015260e08801526101008701521661012085015216610140830152610160908183015281526136e68161049a565b5190206106866136f46135fb565b604051601960f81b6020820152600160f81b602182015260228101919091526042810192909252816062810161209e565b929190926002831015612a3d57600093849360010361374c5750602082519201908319f490565b602083519301918419f190565b90600092839260208351930191f490565b9390936002841015612a3d57600094859460010361378e575060208351930191f490565b9060208451940192f190565b50600080516020614b59833981519152548015610021576000808092368280373360601b3652818060143601925af13d82803e156137d6573d90f35b3d90fd5b156137e157565b60405162461bcd60e51b8152602060048201526005602482015264047533330360dc1b6044820152606490fd5b1561381557565b60405162461bcd60e51b8152602060048201526005602482015264047533030360dc1b6044820152606490fd5b60016000819052602052600080516020614b39833981519152549091906001600160a01b039081166138f0576001600081905260205261389e600080516020614b398339815191525b80546001600160a01b0319166001179055565b82166138a8575050565b813b156138c3576103bb916138be915a91613759565b61380e565b60405162461bcd60e51b815260206004820152600560248201526423a998181960d91b6044820152606490fd5b60405162461bcd60e51b8152602060048201526005602482015264047533130360dc1b6044820152606490fd5b1561392457565b60405162461bcd60e51b8152602060048201526005602482015264475331303160d81b6044820152606490fd5b1561395857565b60405162461bcd60e51b815260206004820152600560248201526423a998981960d91b6044820152606490fd5b929190600133141580613a29575b156139fc576139a193613725565b9081156139d257337f6895c13664aa4f67288b25d7a21d7aaa34916e355fb9b6fae0a139a9085becb86000604051a2565b337facd2c8702804128fdb0db2bb49f6d127dd0181c13fd45dbfe16de0930e2bd3756000604051a2565b60405162461bcd60e51b815260206004820152600560248201526411d4cc4c0d60da1b6044820152606490fd5b50336000908152600160205260409020546001600160a01b03161515613993565b6001600160a01b039081166001811415919082613a6657505090565b909150600052600160205260406000205416151590565b15613a8457565b60405162461bcd60e51b8152602060048201526005602482015264475331303560d81b6044820152606490fd5b15613ab857565b60405162461bcd60e51b815260206004820152600560248201526423a998981b60d91b6044820152606490fd5b90613aef82611187565b613afc60405191826104b6565b8281528092613b0d601f1991611187565b0190602036910137565b15613b1e57565b60405162461bcd60e51b8152602060048201526005602482015264047533230360dc1b6044820152606490fd5b15613b5257565b60405162461bcd60e51b8152602060048201526005602482015264475332303160d81b6044820152606490fd5b15613b8657565b60405162461bcd60e51b815260206004820152600560248201526423a999181960d91b6044820152606490fd5b15613bba57565b60405162461bcd60e51b8152602060048201526005602482015264475332303360d81b6044820152606490fd5b15613bee57565b60405162461bcd60e51b815260206004820152600560248201526411d4cc8c0d60da1b6044820152606490fd5b613c2760045415613b17565b613c348151831115613b4b565b6001613c4281841015613b7f565b600081805b613c6d575b50506103bb9291613c6261388b613c6893611121565b51600355565b600455565b90918351831015613cf957613cd06107ed6134468493613c906115bf888a6123d7565b928391613cbe6001600160a01b038085168015159182613cee575b82613ce3575b82613cd6575b5050613bb3565b611b756107a861079c61078f86611121565b91613c47565b8416141590503880613cb7565b308214159250613cb1565b818b14159250613cab565b91613c4c565b15613d0657565b60405162461bcd60e51b8152602060048201526005602482015264475332303560d81b6044820152606490fd5b8015612bd6576000190190565b60207f610f7ff2b304ae8903c3de74c60c6ab1f7d6226b3f52c5161905bb5ad4039c9391613d6c613dc2565b613d7a600354821115613b4b565b613d876001821015613b7f565b80600455604051908152a1565b6040513481527f3d0ce9bfc3ed7d6862dbb28b2dea94561fe714a1b4d019aa8af39730d1ad7c3d60203392a2565b303303613dcb57565b60405162461bcd60e51b8152602060048201526005602482015264475330333160d81b6044820152606490fd5b90613e028261060a565b613e0f60405191826104b6565b8281528092613b0d601f199161060a565b8015613e53578060001904604111600116613e46575b6041808202918204036100235790565b613e4e611f01565b613e36565b50600090565b8015613e53578060001904600111600116613e7c575b6001818004036100235790565b613e84611f01565b613e6f565b908115613eba5781600019048111600116613ead575b808202918204036100235790565b613eb5611f01565b613e9f565b5050600090565b80821161002357818110612c29570390565b6020198111613eeb575b602081019081106100235790565b613ef3611f01565b613edd565b90613f039082612b86565b9081106100235790565b90808210613f19575090565b905090565b906020918051821015613f3057010190565b613f386117dc565b010190565b805190613f83613f7e613f65613f60613f596003870696612af9565b6003900490565b611f3c565b613f78613f7186612c02565b6003900690565b90612c1e565b613df8565b90600093845b613f9286612b09565b8351106140775761406b6140719161405761400e89613fe3613fd1613fc3613fdd613fd7613fd1613fc3878f613f1e565b516001600160f81b03191690565b60f81c90565b94612b19565b8b613f1e565b9088613ffe8d614004613fd1613fc360ff9586958695612af9565b90613f1e565b16931691166141f7565b61404c61401f879694939596612b19565b948c61404161402d8a612af9565b946140378b612b09565b9060001a92613f1e565b5360001a918c613f1e565b5360001a9189613f1e565b5360001a6140658288613f1e565b53612b29565b95612b09565b94613f89565b91929390945080614089575b50505090565b8060ff806140aa613fd1613fc36140a46140c1978a51612c1e565b89613f1e565b926002600091149687614114575b5016911661418f565b50939160001a6140d18487613f1e565b536140e96140de84612b19565b9160001a9186613f1e565b536140f5575b80614083565b61410161410c91612af9565b9160001a9183613f1e565b5338806140ef565b61412a9150613fc381613ffe613fd19351612bc6565b386140b8565b6040519061413d82610449565b604082527f6768696a6b6c6d6e6f707172737475767778797a303132333435363738392d5f6040837f4142434445464748494a4b4c4d4e4f505152535455565758595a61626364656660208201520152565b9060081b9060101b1760ff60f81b90816141b6603f8360121c166141b1614130565b613f1e565b511692826141cc603f84600c1c166141b1614130565b5116926141f2603f826141e6828760061c166141b1614130565b511694166141b1614130565b511690565b9060081b9060101b171760ff60f81b90816141b6603f8360121c166141b1614130565b610686908060401c9063ffffffff60401b821663ffffffff60c01b82161760201c9163ffffffff60601b169063ffffffff60e01b1617178060101c907bff00000000000000ff00000000000000ff00000000000000ff0000007aff00000000000000ff00000000000000ff00000000000000ff000083167eff00000000000000ff00000000000000ff00000000000000ff00000000000083161760081c92169078ff00000000000000ff00000000000000ff00000000000000ff60381b1617177f0f000f000f000f000f000f000f000f000f000f000f000f000f000f000f000f007e0f000f000f000f000f000f000f000f000f000f000f000f000f000f000f000f8260081c169160041c16177f30303030303030303030303030303030303030303030303030303030303030309080198211614394575b61438d7f0f0f0f0f0f0f0f0f0f0f0f0f0f0f0f0f0f0f0f0f0f0f0f0f0f0f0f0f0f0f0f0f61438761438184612b39565b60041c90565b16611f60565b9101612b86565b61439c611f01565b614351565b90600091825b81518110156143e8576143e3906143d16001600160f81b03196143ca8386613f1e565b51166143ed565b851a6143dd8285613f1e565b5361239d565b6143a7565b509150565b6001600160f81b0319604160f81b828216908110159081614437575b50614412575090565b9060209060f81c60df811161442a575b0160f81b1690565b614432611f01565b614422565b602d60f91b1015905038614409565b909182518015908115614664575b811561463f575b508015614614575b61460c57610686926144736147b5565b916145fb61447f6104d7565b91600083526020926000848201526000604082015285528281519101516144a46104d7565b91825283820152600160408201526144c183860191808352614851565b906145ec6144d760408801938085528351614807565b92606088019384526145dc6145cc6144ed6104d7565b7f6b17d1f2e12c4247f8bce6e563a440f277037d812deb33a0f4a13945d898c29681527f4fe342e2fe1a7f9b8ee7eb4a7c0f9e162bce33576b315ececbb6406837bf51f5898201526001604082015261454f60808c0191808352875190614807565b60a08c01526145618151855190614807565b60c08c01526145738151885190614807565b60e08c01526145828151614851565b906145976101008d0192808452885190614807565b6101208d01526145aa8251865190614807565b6101408d01526145bd8251895190614807565b6101608d015251905190614807565b6101808a01948186525190614807565b6101a08901528251905190614807565b6101c087015251905190614807565b6101e0840152815191015191614671565b505050600090565b507bffffffff00000000000000004319055258e8617b0c46353d039cdaae1960208401511015614463565b6f4319055258e8617b0c46353d039cdaae63ffffffff60c01b0119111590503861445b565b6020850151159150614454565b939290916f4319055258e8617b0c46353d039cdaae63ffffffff60c01b01199081841080159061477b575b614771576146aa8291614ab5565b809309918309600080918193608091825b6146d3575050506146ce93949550614871565b501490565b8561474f575b888160fe1c600c8460fc1c161780614706575b50506146ff90600292831b921b92613d33565b91826146bb565b61474293976146ff97604061473961472185879b989b614785565b51519460206147308289614785565b51015196614785565b5101519461490e565b95909450909288386146ec565b929461476091946147669396614a1a565b91614a1a565b9491939093926146d9565b5060009450505050565b508181101561469c565b9060108110156123c55760051b0190565b604051906147a382610449565b60006040838281528260208201520152565b604051906102008083018381106001600160401b038211176147fa575b6040528260005b8281106147e557505050565b6020906147f0614796565b81840152016147d9565b614802610412565b6147d2565b61483491614813614796565b5081519160406020820151910151825191604060208501519401519461490e565b906040519261484284610449565b83526020830152604082015290565b6148349061485d614796565b508051906040602082015191015191614a1a565b929190811561490257600160601b63ffffffff60c01b031991600083828181116148f8575b505060405191602083526020808401526020604084015260608301526bfffffffffffffffffffffffe63ffffffff60c01b031960808301528360a083015260208260c0816005600019fa156113b0575082905181808280098097099509900990565b0691508338614896565b50509050600090600090565b93959391908161492057505050929190565b90929194958615614a1057600160601b63ffffffff60c01b0319958694859485919082808380099b818d999781868180808f9d888009809d099c8d99099c81878d0990099c099009930895818110614a09575b03958280808960020980099281808481878d0993818110614a02575b0360020994818680099809968280896002098308908181106149fb575b039b8c9360020909948181106149f4575b039009978289106149eb575b8591829108928009958287106149e2575b960394030990565b958401956149da565b978501976149c9565b83016149bd565b83016149ac565b820161498f565b8301614973565b5094505091929190565b929091600160601b63ffffffff60c01b031990819081858009958280808080808c87096004099a800960080992818080808089800980096bfffffffffffffffffffffffd63ffffffff60c01b03190992800960030908818960020982828009818110614aae575b038981809b10614aa7575b039009818110614aa0575b03940960020990565b8301614a97565b8301614a8c565b8301614a81565b6f4319055258e8617b0c46353d039cdaae63ffffffff60c01b0119808211614b2f575b60405191602083526020808401526020604084015260608301527bffffffff00000000000000004319055258e8617b0c46353d039cdab019608083015260a082015260208160c0816005600019fa15610023575190565b80910690614ad856fecc69885fda6bcc1a4ace058b4a62bf5e179ea78fd58a1ccd71c22cc9b688792f6c9a6c4a39284e37ed1cf53d337577d14212a4870fb976a4366c693b939918d5a264697066735822122056c5caa6341f48e1cf7ad1b336c662c2bfc70d600bf65b82296468a1c65e87fe64736f6c634300080f0033",
    "linkReferences": {},
    "deployedLinkReferences": {}
}